{
  "contractName": "Censorshield",
  "abi": [
    {
      "anonymous": false,
      "inputs": [
        {
          "indexed": true,
          "internalType": "uint256",
          "name": "groupId",
          "type": "uint256"
        },
        {
          "indexed": true,
          "internalType": "string",
          "name": "name",
          "type": "string"
        },
        {
          "indexed": true,
          "internalType": "address",
          "name": "creator",
          "type": "address"
        }
      ],
      "name": "LogAddGroup",
      "type": "event"
    },
    {
      "anonymous": false,
      "inputs": [
        {
          "indexed": true,
          "internalType": "uint256",
          "name": "itemId",
          "type": "uint256"
        },
        {
          "indexed": true,
          "internalType": "uint256",
          "name": "groupId",
          "type": "uint256"
        },
        {
          "indexed": false,
          "internalType": "bytes32",
          "name": "hash",
          "type": "bytes32"
        },
        {
          "indexed": false,
          "internalType": "address",
          "name": "author",
          "type": "address"
        }
      ],
      "name": "LogAddItem",
      "type": "event"
    },
    {
      "inputs": [],
      "name": "GroupNameMaxLength",
      "outputs": [
        {
          "internalType": "uint8",
          "name": "",
          "type": "uint8"
        }
      ],
      "stateMutability": "view",
      "type": "function",
      "constant": true
    },
    {
      "inputs": [],
      "name": "ItemNameMaxLength",
      "outputs": [
        {
          "internalType": "uint8",
          "name": "",
          "type": "uint8"
        }
      ],
      "stateMutability": "view",
      "type": "function",
      "constant": true
    },
    {
      "inputs": [],
      "name": "Price",
      "outputs": [
        {
          "internalType": "uint256",
          "name": "",
          "type": "uint256"
        }
      ],
      "stateMutability": "view",
      "type": "function",
      "constant": true
    },
    {
      "inputs": [],
      "name": "groupCounter",
      "outputs": [
        {
          "internalType": "uint256",
          "name": "",
          "type": "uint256"
        }
      ],
      "stateMutability": "view",
      "type": "function",
      "constant": true
    },
    {
      "inputs": [
        {
          "internalType": "bytes32",
          "name": "",
          "type": "bytes32"
        }
      ],
      "name": "groupNamesMap",
      "outputs": [
        {
          "internalType": "uint256",
          "name": "",
          "type": "uint256"
        }
      ],
      "stateMutability": "view",
      "type": "function",
      "constant": true
    },
    {
      "inputs": [],
      "name": "itemCounter",
      "outputs": [
        {
          "internalType": "uint256",
          "name": "",
          "type": "uint256"
        }
      ],
      "stateMutability": "view",
      "type": "function",
      "constant": true
    },
    {
      "inputs": [
        {
          "internalType": "uint256",
          "name": "",
          "type": "uint256"
        }
      ],
      "name": "itemsMap",
      "outputs": [
        {
          "internalType": "uint256",
          "name": "id",
          "type": "uint256"
        },
        {
          "internalType": "bytes32",
          "name": "hash",
          "type": "bytes32"
        },
        {
          "internalType": "string",
          "name": "name",
          "type": "string"
        },
        {
          "internalType": "uint256",
          "name": "creationDate",
          "type": "uint256"
        },
        {
          "internalType": "uint256",
          "name": "groupId",
          "type": "uint256"
        },
        {
          "internalType": "address",
          "name": "author",
          "type": "address"
        },
        {
          "internalType": "bool",
          "name": "isAccepted",
          "type": "bool"
        }
      ],
      "stateMutability": "view",
      "type": "function",
      "constant": true
    },
    {
      "inputs": [
        {
          "internalType": "address",
          "name": "",
          "type": "address"
        }
      ],
      "name": "memberGroupsCounterMap",
      "outputs": [
        {
          "internalType": "uint256",
          "name": "",
          "type": "uint256"
        }
      ],
      "stateMutability": "view",
      "type": "function",
      "constant": true
    },
    {
      "inputs": [
        {
          "internalType": "address",
          "name": "",
          "type": "address"
        },
        {
          "internalType": "uint256",
          "name": "",
          "type": "uint256"
        }
      ],
      "name": "memberGroupsMap",
      "outputs": [
        {
          "internalType": "uint256",
          "name": "",
          "type": "uint256"
        }
      ],
      "stateMutability": "view",
      "type": "function",
      "constant": true
    },
    {
      "inputs": [],
      "name": "owner",
      "outputs": [
        {
          "internalType": "address",
          "name": "",
          "type": "address"
        }
      ],
      "stateMutability": "view",
      "type": "function",
      "constant": true
    },
    {
      "inputs": [
        {
          "internalType": "string",
          "name": "name",
          "type": "string"
        },
        {
          "internalType": "uint32",
          "name": "_minimalVotes",
          "type": "uint32"
        },
        {
          "internalType": "uint8",
          "name": "_minimalPercentsToAccept",
          "type": "uint8"
        }
      ],
      "name": "addGroup",
      "outputs": [],
      "stateMutability": "payable",
      "type": "function",
      "payable": true
    },
    {
      "inputs": [
        {
          "internalType": "uint256",
          "name": "groupId",
          "type": "uint256"
        },
        {
          "internalType": "string",
          "name": "name",
          "type": "string"
        },
        {
          "internalType": "bytes32",
          "name": "_hash",
          "type": "bytes32"
        }
      ],
      "name": "addItem",
      "outputs": [],
      "stateMutability": "payable",
      "type": "function",
      "payable": true
    },
    {
      "inputs": [
        {
          "internalType": "uint256",
          "name": "groupId",
          "type": "uint256"
        }
      ],
      "name": "getGroup",
      "outputs": [
        {
          "internalType": "uint256",
          "name": "size",
          "type": "uint256"
        },
        {
          "internalType": "string",
          "name": "name",
          "type": "string"
        },
        {
          "internalType": "address",
          "name": "creator",
          "type": "address"
        },
        {
          "internalType": "uint256",
          "name": "creationDate",
          "type": "uint256"
        },
        {
          "internalType": "uint32",
          "name": "minimalVotes",
          "type": "uint32"
        },
        {
          "internalType": "uint8",
          "name": "minimalPercentsToAccept",
          "type": "uint8"
        },
        {
          "internalType": "uint256",
          "name": "memberCounter",
          "type": "uint256"
        }
      ],
      "stateMutability": "view",
      "type": "function",
      "constant": true
    },
    {
      "inputs": [
        {
          "internalType": "uint256",
          "name": "groupId",
          "type": "uint256"
        },
        {
          "internalType": "uint256",
          "name": "index",
          "type": "uint256"
        }
      ],
      "name": "getGroupContentId",
      "outputs": [
        {
          "internalType": "uint256",
          "name": "id",
          "type": "uint256"
        }
      ],
      "stateMutability": "view",
      "type": "function",
      "constant": true
    }
  ],
  "bytecode": "0x6080604052336000806101000a81548173ffffffffffffffffffffffffffffffffffffffff021916908373ffffffffffffffffffffffffffffffffffffffff16021790555034801561005057600080fd5b50611f72806100606000396000f3fe6080604052600436106100dd5760003560e01c80639dfde2011161007f578063d24924fe11610059578063d24924fe146102f9578063d8cb785e14610324578063e4f793ed14610340578063ed990a6c1461036b576100dd565b80639dfde20114610248578063bace4b6714610273578063ceb60654146102b6576100dd565b80637815a4b5116100bb5780637815a4b51461018757806386cd238a146101a35780638da5cb5b146101e05780639dc19bc81461020b576100dd565b806358c55d32146100e257806362a1281b1461011f5780636d6d00ed1461015c575b600080fd5b3480156100ee57600080fd5b50610109600480360381019061010491906111f1565b610396565b6040516101169190611240565b60405180910390f35b34801561012b57600080fd5b5061014660048036038101906101419190611291565b6103d3565b6040516101539190611240565b60405180910390f35b34801561016857600080fd5b506101716103eb565b60405161017e9190611240565b60405180910390f35b6101a1600480360381019061019c9190611404565b6103f1565b005b3480156101af57600080fd5b506101ca60048036038101906101c591906114d1565b610708565b6040516101d79190611240565b60405180910390f35b3480156101ec57600080fd5b506101f5610720565b604051610202919061150d565b60405180910390f35b34801561021757600080fd5b50610232600480360381019061022d9190611528565b610744565b60405161023f9190611240565b60405180910390f35b34801561025457600080fd5b5061025d610775565b60405161026a9190611240565b60405180910390f35b34801561027f57600080fd5b5061029a60048036038101906102959190611568565b610781565b6040516102ad9796959493929190611647565b60405180910390f35b3480156102c257600080fd5b506102dd60048036038101906102d89190611568565b610878565b6040516102f097969594939291906116f8565b60405180910390f35b34801561030557600080fd5b5061030e61099c565b60405161031b9190611240565b60405180910390f35b61033e600480360381019061033991906117c6565b6109a2565b005b34801561034c57600080fd5b50610355610e73565b6040516103629190611835565b60405180910390f35b34801561037757600080fd5b50610380610e78565b60405161038d9190611835565b60405180910390f35b60006001600084815260200190815260200160002060080182815481106103c0576103bf611850565b5b9060005260206000200154905092915050565b60026020528060005260406000206000915090505481565b60075481565b67016345785d8a000034101561043c576040517f08c379a0000000000000000000000000000000000000000000000000000000008152600401610433906118cb565b60405180910390fd5b6000829050608060ff1681511115610489576040517f08c379a00000000000000000000000000000000000000000000000000000000081526004016104809061195d565b60405180910390fd5b6000600160008681526020019081526020016000209050600115158160060160003373ffffffffffffffffffffffffffffffffffffffff1673ffffffffffffffffffffffffffffffffffffffff16815260200190815260200160002060009054906101000a900460ff16151514610535576040517f08c379a000000000000000000000000000000000000000000000000000000000815260040161052c906119ef565b60405180910390fd5b60006006600060076000815461054a90611a3e565b9190508190558152602001908152602001600020905060075481600001819055508381600101819055508481600201908051906020019061058c929190611104565b5042816003018190555081600001548160040181905550338160050160006101000a81548173ffffffffffffffffffffffffffffffffffffffff021916908373ffffffffffffffffffffffffffffffffffffffff1602179055508160070160008154809291906105fb90611a3e565b91905055508160080181600001549080600181540180825580915050600190039060005260206000200160009091909190915055806004015481600001547f1ad7f99aaa03a9764d2deff0b2b4194d1085c94b6b48c4a020f58e8aa2d15cfb868460050160009054906101000a900473ffffffffffffffffffffffffffffffffffffffff1660405161068e929190611a87565b60405180910390a3505050600067016345785d8a0000346106af9190611ab0565b90506000811115610702573373ffffffffffffffffffffffffffffffffffffffff166108fc829081150290604051600060405180830381858888f19350505050158015610700573d6000803e3d6000fd5b505b50505050565b60056020528060005260406000206000915090505481565b60008054906101000a900473ffffffffffffffffffffffffffffffffffffffff1681565b6004602052816000526040600020818154811061076057600080fd5b90600052602060002001600091509150505481565b67016345785d8a000081565b60066020528060005260406000206000915090508060000154908060010154908060020180546107b090611b13565b80601f01602080910402602001604051908101604052809291908181526020018280546107dc90611b13565b80156108295780601f106107fe57610100808354040283529160200191610829565b820191906000526020600020905b81548152906001019060200180831161080c57829003601f168201915b5050505050908060030154908060040154908060050160009054906101000a900473ffffffffffffffffffffffffffffffffffffffff16908060050160149054906101000a900460ff16905087565b60006060600080600080600080600160008a81526020019081526020016000209050806007015497508060030180546108b090611b13565b80601f01602080910402602001604051908101604052809291908181526020018280546108dc90611b13565b80156109295780601f106108fe57610100808354040283529160200191610929565b820191906000526020600020905b81548152906001019060200180831161090c57829003601f168201915b505050505096508060010160009054906101000a900473ffffffffffffffffffffffffffffffffffffffff169550806002015494508060040160009054906101000a900463ffffffff1693508060040160049054906101000a900460ff1692508060050154915050919395979092949650565b60035481565b67016345785d8a00003410156109ed576040517f08c379a00000000000000000000000000000000000000000000000000000000081526004016109e4906118cb565b60405180910390fd5b6000839050602060ff1681511115610a3a576040517f08c379a0000000000000000000000000000000000000000000000000000000008152600401610a3190611bb7565b60405180910390fd5b610a4381610e7d565b905060011515610a5282610f81565b151514610a94576040517f08c379a0000000000000000000000000000000000000000000000000000000008152600401610a8b90611c49565b60405180910390fd5b6000818051906020012090506000600260008381526020019081526020016000205414610af6576040517f08c379a0000000000000000000000000000000000000000000000000000000008152600401610aed90611cb5565b60405180910390fd5b60008463ffffffff1611610b3f576040517f08c379a0000000000000000000000000000000000000000000000000000000008152600401610b3690611d47565b60405180910390fd5b60648360ff161115610b86576040517f08c379a0000000000000000000000000000000000000000000000000000000008152600401610b7d90611dd9565b60405180910390fd5b600360008154610b9590611a3e565b9190508190556002600083815260200190815260200160002081905550600060016000600354815260200190815260200160002090506003548160000181905550338160010160006101000a81548173ffffffffffffffffffffffffffffffffffffffff021916908373ffffffffffffffffffffffffffffffffffffffff16021790555042816002018190555082816003019080519060200190610c3a929190611104565b50848160040160006101000a81548163ffffffff021916908363ffffffff160217905550838160040160046101000a81548160ff021916908360ff1602179055506001816005018190555060018160060160003373ffffffffffffffffffffffffffffffffffffffff1673ffffffffffffffffffffffffffffffffffffffff16815260200190815260200160002060006101000a81548160ff0219169083151502179055506000600460003373ffffffffffffffffffffffffffffffffffffffff1673ffffffffffffffffffffffffffffffffffffffff1681526020019081526020016000209050806003549080600181540180825580915050600190039060005260206000200160009091909190915055600560003373ffffffffffffffffffffffffffffffffffffffff1673ffffffffffffffffffffffffffffffffffffffff1681526020019081526020016000206000815480929190610d9c90611a3e565b91905055503373ffffffffffffffffffffffffffffffffffffffff1682600301604051610dc99190611e98565b60405180910390206003547f82d69c31150dbd3f92007cd0498989438a41c1cc9648edb23b6446228cff53aa60405160405180910390a450505050600067016345785d8a000034610e1a9190611ab0565b90506000811115610e6d573373ffffffffffffffffffffffffffffffffffffffff166108fc829081150290604051600060405180830381858888f19350505050158015610e6b573d6000803e3d6000fd5b505b50505050565b602081565b608081565b606060005b8251811015610f78576000838281518110610ea057610e9f611850565b5b602001015160f81c60f81b9050604160f81b817effffffffffffffffffffffffffffffffffffffffffffffffffffffffffffff191610158015610f095750605a60f81b817effffffffffffffffffffffffffffffffffffffffffffffffffffffffffffff191611155b15610f645760208160f81c610f1e9190611eaf565b60f81b848381518110610f3457610f33611850565b5b60200101907effffffffffffffffffffffffffffffffffffffffffffffffffffffffffffff1916908160001a9053505b508080610f7090611a3e565b915050610e82565b50819050919050565b60008060018351610f929190611ee6565b905060005b83518110156110f8576000848281518110610fb557610fb4611850565b5b602001015160f81c60f81b9050602060f81b817effffffffffffffffffffffffffffffffffffffffffffffffffffffffffffff1916141561101857600182610ffd9190611ab0565b83141561101057600093505050506110ff565b8192506110e4565b607a60f81b817effffffffffffffffffffffffffffffffffffffffffffffffffffffffffffff191611806110715750603060f81b817effffffffffffffffffffffffffffffffffffffffffffffffffffffffffffff1916105b806110d25750606160f81b817effffffffffffffffffffffffffffffffffffffffffffffffffffffffffffff19161080156110d15750603960f81b817effffffffffffffffffffffffffffffffffffffffffffffffffffffffffffff1916115b5b156110e357600093505050506110ff565b5b5080806110f090611a3e565b915050610f97565b5060019150505b919050565b82805461111090611b13565b90600052602060002090601f0160209004810192826111325760008555611179565b82601f1061114b57805160ff1916838001178555611179565b82800160010185558215611179579182015b8281111561117857825182559160200191906001019061115d565b5b509050611186919061118a565b5090565b5b808211156111a357600081600090555060010161118b565b5090565b6000604051905090565b600080fd5b600080fd5b6000819050919050565b6111ce816111bb565b81146111d957600080fd5b50565b6000813590506111eb816111c5565b92915050565b60008060408385031215611208576112076111b1565b5b6000611216858286016111dc565b9250506020611227858286016111dc565b9150509250929050565b61123a816111bb565b82525050565b60006020820190506112556000830184611231565b92915050565b6000819050919050565b61126e8161125b565b811461127957600080fd5b50565b60008135905061128b81611265565b92915050565b6000602082840312156112a7576112a66111b1565b5b60006112b58482850161127c565b91505092915050565b600080fd5b600080fd5b6000601f19601f8301169050919050565b7f4e487b7100000000000000000000000000000000000000000000000000000000600052604160045260246000fd5b611311826112c8565b810181811067ffffffffffffffff821117156113305761132f6112d9565b5b80604052505050565b60006113436111a7565b905061134f8282611308565b919050565b600067ffffffffffffffff82111561136f5761136e6112d9565b5b611378826112c8565b9050602081019050919050565b82818337600083830152505050565b60006113a76113a284611354565b611339565b9050828152602081018484840111156113c3576113c26112c3565b5b6113ce848285611385565b509392505050565b600082601f8301126113eb576113ea6112be565b5b81356113fb848260208601611394565b91505092915050565b60008060006060848603121561141d5761141c6111b1565b5b600061142b868287016111dc565b935050602084013567ffffffffffffffff81111561144c5761144b6111b6565b5b611458868287016113d6565b92505060406114698682870161127c565b9150509250925092565b600073ffffffffffffffffffffffffffffffffffffffff82169050919050565b600061149e82611473565b9050919050565b6114ae81611493565b81146114b957600080fd5b50565b6000813590506114cb816114a5565b92915050565b6000602082840312156114e7576114e66111b1565b5b60006114f5848285016114bc565b91505092915050565b61150781611493565b82525050565b600060208201905061152260008301846114fe565b92915050565b6000806040838503121561153f5761153e6111b1565b5b600061154d858286016114bc565b925050602061155e858286016111dc565b9150509250929050565b60006020828403121561157e5761157d6111b1565b5b600061158c848285016111dc565b91505092915050565b61159e8161125b565b82525050565b600081519050919050565b600082825260208201905092915050565b60005b838110156115de5780820151818401526020810190506115c3565b838111156115ed576000848401525b50505050565b60006115fe826115a4565b61160881856115af565b93506116188185602086016115c0565b611621816112c8565b840191505092915050565b60008115159050919050565b6116418161162c565b82525050565b600060e08201905061165c600083018a611231565b6116696020830189611595565b818103604083015261167b81886115f3565b905061168a6060830187611231565b6116976080830186611231565b6116a460a08301856114fe565b6116b160c0830184611638565b98975050505050505050565b600063ffffffff82169050919050565b6116d6816116bd565b82525050565b600060ff82169050919050565b6116f2816116dc565b82525050565b600060e08201905061170d600083018a611231565b818103602083015261171f81896115f3565b905061172e60408301886114fe565b61173b6060830187611231565b61174860808301866116cd565b61175560a08301856116e9565b61176260c0830184611231565b98975050505050505050565b611777816116bd565b811461178257600080fd5b50565b6000813590506117948161176e565b92915050565b6117a3816116dc565b81146117ae57600080fd5b50565b6000813590506117c08161179a565b92915050565b6000806000606084860312156117df576117de6111b1565b5b600084013567ffffffffffffffff8111156117fd576117fc6111b6565b5b611809868287016113d6565b935050602061181a86828701611785565b925050604061182b868287016117b1565b9150509250925092565b600060208201905061184a60008301846116e9565b92915050565b7f4e487b7100000000000000000000000000000000000000000000000000000000600052603260045260246000fd5b7f4e6f7420656e6f7567682066756e647300000000000000000000000000000000600082015250565b60006118b56010836115af565b91506118c08261187f565b602082019050919050565b600060208201905081810360008301526118e4816118a8565b9050919050565b7f4974656d206e616d652068617320746f206265206c657373206f72206571756160008201527f6c20746f20313238206368617261637465727300000000000000000000000000602082015250565b60006119476033836115af565b9150611952826118eb565b604082019050919050565b600060208201905081810360008301526119768161193a565b9050919050565b7f53656e6465722068617320746f2062652061206d656d626572206f662067726f60008201527f7570000000000000000000000000000000000000000000000000000000000000602082015250565b60006119d96022836115af565b91506119e48261197d565b604082019050919050565b60006020820190508181036000830152611a08816119cc565b9050919050565b7f4e487b7100000000000000000000000000000000000000000000000000000000600052601160045260246000fd5b6000611a49826111bb565b91507fffffffffffffffffffffffffffffffffffffffffffffffffffffffffffffffff821415611a7c57611a7b611a0f565b5b600182019050919050565b6000604082019050611a9c6000830185611595565b611aa960208301846114fe565b9392505050565b6000611abb826111bb565b9150611ac6836111bb565b925082821015611ad957611ad8611a0f565b5b828203905092915050565b7f4e487b7100000000000000000000000000000000000000000000000000000000600052602260045260246000fd5b60006002820490506001821680611b2b57607f821691505b60208210811415611b3f57611b3e611ae4565b5b50919050565b7f47726f7570206e616d652068617320746f206265206c657373206f722065717560008201527f616c20746f203332206368617261637465727300000000000000000000000000602082015250565b6000611ba16033836115af565b9150611bac82611b45565b604082019050919050565b60006020820190508181036000830152611bd081611b94565b9050919050565b7f47726f7570206e616d6520636f6e7461696e7320756e61636365707461626c6560008201527f2073796d626f6c73000000000000000000000000000000000000000000000000602082015250565b6000611c336028836115af565b9150611c3e82611bd7565b604082019050919050565b60006020820190508181036000830152611c6281611c26565b9050919050565b7f537563682061206e616d6520616c726561647920657869737473000000000000600082015250565b6000611c9f601a836115af565b9150611caa82611c69565b602082019050919050565b60006020820190508181036000830152611cce81611c92565b9050919050565b7f4d696e696d616c20766f746573206d757374206265206772656174657220746860008201527f616e207a65726f00000000000000000000000000000000000000000000000000602082015250565b6000611d316027836115af565b9150611d3c82611cd5565b604082019050919050565b60006020820190508181036000830152611d6081611d24565b9050919050565b7f4d696e696d616c2070657263656e747320746f20616363657074206d7573742060008201527f6265206265747765656e203020616e6420313030000000000000000000000000602082015250565b6000611dc36034836115af565b9150611dce82611d67565b604082019050919050565b60006020820190508181036000830152611df281611db6565b9050919050565b600081905092915050565b60008190508160005260206000209050919050565b60008154611e2681611b13565b611e308186611df9565b94506001821660008114611e4b5760018114611e5c57611e8f565b60ff19831686528186019350611e8f565b611e6585611e04565b60005b83811015611e8757815481890152600182019150602081019050611e68565b838801955050505b50505092915050565b6000611ea48284611e19565b915081905092915050565b6000611eba826116dc565b9150611ec5836116dc565b92508260ff03821115611edb57611eda611a0f565b5b828201905092915050565b6000611ef1826111bb565b9150611efc836111bb565b9250827fffffffffffffffffffffffffffffffffffffffffffffffffffffffffffffffff03821115611f3157611f30611a0f565b5b82820190509291505056fea264697066735822122024af3ad2cc79130b43d4218d1c7938e2b49461a62e60efef4061c76ba9b2d2f564736f6c634300080a0033",
  "immutableReferences": {},
  "source": "pragma solidity 0.8.10;\r\n\r\nimport \"solidity-linked-list/contracts/StructuredLinkedList.sol\";\r\nimport \"./util/Strings.sol\";\r\n\r\ncontract Censorshield {\r\n    \r\n    uint8 public constant GroupNameMaxLength = 32;\r\n    uint8 public constant ItemNameMaxLength = 128;\r\n    uint public constant Price = 0.1 ether;\r\n    \r\n    struct Item {\r\n        uint id;\r\n        bytes32 hash;\r\n        string name;\r\n        uint creationDate;\r\n        uint groupId;\r\n        address author;\r\n        bool isAccepted;\r\n    }\r\n\r\n    struct Group {\r\n        uint id;\r\n        address creator;\r\n        uint creationDate;\r\n        string name;\r\n        uint32 minimalVotes;\r\n        uint8 minimalPercentsToAccept;\r\n        uint memberCounter;\r\n        mapping(address => bool) membersMap;\r\n        uint contentCounter;\r\n        uint[] content;\r\n    }\r\n\r\n    /// @notice Keep the information about contract owner to handle the security\r\n    address public owner = msg.sender;\r\n\r\n    /// @notice Mapping of groups ids to group struct.\r\n    /// @dev The reason why this map is internal is solidity limitation\r\n    /// to access to Group.drafts property. Access to this data will be provided by custom getter\r\n    mapping(uint => Group) internal groupsMap;\r\n\r\n    /// @notice Mapping of group names hashes and their ids\r\n    mapping(bytes32 => uint) public groupNamesMap;\r\n\r\n    /// @notice handling the group ids\r\n    uint public groupCounter;\r\n    \r\n    /// @notice Mapping each member to group ids\r\n    mapping(address => uint[]) public memberGroupsMap;\r\n\r\n    /// @notice Mapping each member to groups quantity\r\n    /// @dev Needed to more advanced tracking the groups of member\r\n    mapping(address => uint) public memberGroupsCounterMap;\r\n\r\n    /// @notice Mapping of item ids to items;\r\n    mapping(uint => Item) public itemsMap;\r\n\r\n    /// @notice Item counter to handle the item ids\r\n    uint public itemCounter;\r\n\r\n    event LogAddGroup(uint indexed groupId, string indexed name, address indexed creator);\r\n    event LogAddItem(uint indexed itemId, uint indexed groupId, bytes32 hash, address author);\r\n\r\n    modifier paidEnough() { \r\n        require(msg.value >= Price, \"Not enough funds\"); \r\n        _;\r\n    }\r\n    \r\n    modifier refundExcess() {\r\n        _;\r\n        uint amountToRefund = msg.value - Price;\r\n        if (amountToRefund > 0)\r\n            payable(msg.sender).transfer(amountToRefund);\r\n    }\r\n\r\n    function addGroup(string memory name, uint32 _minimalVotes, uint8 _minimalPercentsToAccept)\r\n        public\r\n        payable\r\n        paidEnough\r\n        refundExcess\r\n    {\r\n        // Check for max length\r\n        bytes memory nameBytes = bytes(name);\r\n        require (nameBytes.length <= GroupNameMaxLength, \"Group name has to be less or equal to 32 characters\");\r\n\r\n        // Check for unacceptable symbols.\r\n        // Name has to contain only [a-z0-9] and only one space in a row\r\n        nameBytes = Strings.lower(nameBytes);\r\n        require (Strings.areWords(nameBytes) == true, \"Group name contains unacceptable symbols\");\r\n\r\n        // Name is unique for a group\r\n        bytes32 nameHash = keccak256(nameBytes);\r\n        require(groupNamesMap[nameHash] == 0, \"Such a name already exists\");\r\n\r\n        // Check the _minimalVotes\r\n        require(_minimalVotes > 0, \"Minimal votes must be greater than zero\");\r\n\r\n        // Check the _minimalPercentsToAccept\r\n        require(_minimalPercentsToAccept <= 100, \"Minimal percents to accept must be between 0 and 100\");\r\n\r\n        // Start to modify the state\r\n        groupNamesMap[nameHash] = ++groupCounter;\r\n        Group storage group = groupsMap[groupCounter];\r\n        group.id = groupCounter; \r\n        group.creator = msg.sender;\r\n        group.creationDate = block.timestamp;\r\n        group.name = string(nameBytes);\r\n        group.minimalVotes = _minimalVotes;\r\n        group.minimalPercentsToAccept = _minimalPercentsToAccept;\r\n        group.memberCounter = 1;\r\n        group.membersMap[msg.sender] = true;\r\n\r\n        uint[] storage memberGroups = memberGroupsMap[msg.sender];\r\n        memberGroups.push(groupCounter);\r\n\r\n        memberGroupsCounterMap[msg.sender]++;\r\n\r\n        // Emit event\r\n        emit LogAddGroup(groupCounter, group.name, msg.sender);\r\n    }\r\n\r\n    function addItem(uint groupId, string memory name, bytes32 _hash)\r\n        public\r\n        payable\r\n        paidEnough\r\n        refundExcess\r\n    {\r\n        // Check for max length\r\n        bytes memory nameBytes = bytes(name);\r\n        require (nameBytes.length <= ItemNameMaxLength, \"Item name has to be less or equal to 128 characters\");\r\n\r\n        // Check the access to add new item by this sender\r\n        Group storage group = groupsMap[groupId];\r\n        require (group.membersMap[msg.sender] == true, \"Sender has to be a member of group\");\r\n\r\n        // Start to modify the state\r\n        Item storage item = itemsMap[++itemCounter];\r\n        item.id = itemCounter;\r\n        item.hash = _hash;\r\n        item.name = name;\r\n        item.creationDate = block.timestamp;\r\n        item.groupId = group.id;\r\n        item.author = msg.sender;\r\n\r\n        group.contentCounter++;\r\n        group.content.push(item.id);\r\n\r\n        // Emit event\r\n        emit LogAddItem(item.id, item.groupId, _hash, item.author);\r\n    }\r\n\r\n    function getGroup(uint groupId)\r\n        public\r\n        view\r\n        returns (uint size, \r\n            string memory name,\r\n            address creator,\r\n            uint creationDate,\r\n            uint32 minimalVotes,\r\n            uint8 minimalPercentsToAccept,\r\n            uint memberCounter)\r\n    {\r\n        Group storage group = groupsMap[groupId];\r\n        size = group.contentCounter;\r\n        name = group.name;\r\n        creator = group.creator;\r\n        creationDate = group.creationDate;\r\n        minimalVotes = group.minimalVotes;\r\n        minimalPercentsToAccept = group.minimalPercentsToAccept;\r\n        memberCounter = group.memberCounter;\r\n    }\r\n\r\n    function getGroupContentId(uint groupId, uint index)\r\n        public\r\n        view\r\n        returns (uint id)\r\n    {\r\n        id = groupsMap[groupId].content[index];\r\n    }\r\n}",
  "sourcePath": "D:\\Projects\\blockchain-developer-bootcamp-final-project\\contracts\\Censorshield.sol",
  "compiler": {
    "name": "solc",
    "version": "0.8.10+commit.fc410830.Emscripten.clang"
  },
  "schemaVersion": "3.4.3",
  "updatedAt": "2021-11-28T12:45:16.521Z",
  "networkType": "ethereum",
  "devdoc": {
    "kind": "dev",
    "methods": {},
    "stateVariables": {
      "groupsMap": {
        "details": "The reason why this map is internal is solidity limitation to access to Group.drafts property. Access to this data will be provided by custom getter"
      },
      "memberGroupsCounterMap": {
        "details": "Needed to more advanced tracking the groups of member"
      }
    },
    "version": 1
  },
  "userdoc": {
    "kind": "user",
    "methods": {
      "groupCounter()": {
        "notice": "handling the group ids"
      },
      "groupNamesMap(bytes32)": {
        "notice": "Mapping of group names hashes and their ids"
      },
      "itemCounter()": {
        "notice": "Item counter to handle the item ids"
      },
      "itemsMap(uint256)": {
        "notice": "Mapping of item ids to items;"
      },
      "memberGroupsCounterMap(address)": {
        "notice": "Mapping each member to groups quantity"
      },
      "memberGroupsMap(address,uint256)": {
        "notice": "Mapping each member to group ids"
      },
      "owner()": {
        "notice": "Keep the information about contract owner to handle the security"
      }
    },
    "version": 1
  }
}