{
  "contractName": "Censorshield",
  "abi": [
    {
      "anonymous": false,
      "inputs": [
        {
          "indexed": true,
          "internalType": "uint256",
          "name": "groupId",
          "type": "uint256"
        },
        {
          "indexed": true,
          "internalType": "string",
          "name": "name",
          "type": "string"
        },
        {
          "indexed": true,
          "internalType": "address",
          "name": "creator",
          "type": "address"
        }
      ],
      "name": "LogAddGroup",
      "type": "event"
    },
    {
      "anonymous": false,
      "inputs": [
        {
          "indexed": true,
          "internalType": "uint256",
          "name": "itemId",
          "type": "uint256"
        },
        {
          "indexed": true,
          "internalType": "uint256",
          "name": "groupId",
          "type": "uint256"
        },
        {
          "indexed": false,
          "internalType": "bytes32",
          "name": "hash",
          "type": "bytes32"
        },
        {
          "indexed": false,
          "internalType": "address",
          "name": "author",
          "type": "address"
        }
      ],
      "name": "LogAddItem",
      "type": "event"
    },
    {
      "inputs": [],
      "name": "GroupNameMaxLength",
      "outputs": [
        {
          "internalType": "uint8",
          "name": "",
          "type": "uint8"
        }
      ],
      "stateMutability": "view",
      "type": "function"
    },
    {
      "inputs": [],
      "name": "ItemNameMaxLength",
      "outputs": [
        {
          "internalType": "uint8",
          "name": "",
          "type": "uint8"
        }
      ],
      "stateMutability": "view",
      "type": "function"
    },
    {
      "inputs": [],
      "name": "Price",
      "outputs": [
        {
          "internalType": "uint256",
          "name": "",
          "type": "uint256"
        }
      ],
      "stateMutability": "view",
      "type": "function"
    },
    {
      "inputs": [],
      "name": "groupCounter",
      "outputs": [
        {
          "internalType": "uint256",
          "name": "",
          "type": "uint256"
        }
      ],
      "stateMutability": "view",
      "type": "function"
    },
    {
      "inputs": [
        {
          "internalType": "bytes32",
          "name": "",
          "type": "bytes32"
        }
      ],
      "name": "groupNamesMap",
      "outputs": [
        {
          "internalType": "uint256",
          "name": "",
          "type": "uint256"
        }
      ],
      "stateMutability": "view",
      "type": "function"
    },
    {
      "inputs": [],
      "name": "itemCounter",
      "outputs": [
        {
          "internalType": "uint256",
          "name": "",
          "type": "uint256"
        }
      ],
      "stateMutability": "view",
      "type": "function"
    },
    {
      "inputs": [
        {
          "internalType": "uint256",
          "name": "",
          "type": "uint256"
        }
      ],
      "name": "itemsMap",
      "outputs": [
        {
          "internalType": "uint256",
          "name": "id",
          "type": "uint256"
        },
        {
          "internalType": "bytes32",
          "name": "hash",
          "type": "bytes32"
        },
        {
          "internalType": "string",
          "name": "name",
          "type": "string"
        },
        {
          "internalType": "uint256",
          "name": "creationDate",
          "type": "uint256"
        },
        {
          "internalType": "uint256",
          "name": "groupId",
          "type": "uint256"
        },
        {
          "internalType": "address",
          "name": "author",
          "type": "address"
        },
        {
          "internalType": "bool",
          "name": "isAccepted",
          "type": "bool"
        }
      ],
      "stateMutability": "view",
      "type": "function"
    },
    {
      "inputs": [
        {
          "internalType": "address",
          "name": "",
          "type": "address"
        }
      ],
      "name": "memberGroupsCounterMap",
      "outputs": [
        {
          "internalType": "uint256",
          "name": "",
          "type": "uint256"
        }
      ],
      "stateMutability": "view",
      "type": "function"
    },
    {
      "inputs": [
        {
          "internalType": "address",
          "name": "",
          "type": "address"
        },
        {
          "internalType": "uint256",
          "name": "",
          "type": "uint256"
        }
      ],
      "name": "memberGroupsMap",
      "outputs": [
        {
          "internalType": "uint256",
          "name": "",
          "type": "uint256"
        }
      ],
      "stateMutability": "view",
      "type": "function"
    },
    {
      "inputs": [],
      "name": "owner",
      "outputs": [
        {
          "internalType": "address",
          "name": "",
          "type": "address"
        }
      ],
      "stateMutability": "view",
      "type": "function"
    },
    {
      "inputs": [
        {
          "internalType": "string",
          "name": "name",
          "type": "string"
        },
        {
          "internalType": "uint32",
          "name": "_minimalVotes",
          "type": "uint32"
        },
        {
          "internalType": "uint8",
          "name": "_minimalPercentsToAccept",
          "type": "uint8"
        }
      ],
      "name": "addGroup",
      "outputs": [],
      "stateMutability": "payable",
      "type": "function"
    },
    {
      "inputs": [
        {
          "internalType": "uint256",
          "name": "groupId",
          "type": "uint256"
        },
        {
          "internalType": "string",
          "name": "name",
          "type": "string"
        },
        {
          "internalType": "bytes32",
          "name": "_hash",
          "type": "bytes32"
        }
      ],
      "name": "addItem",
      "outputs": [],
      "stateMutability": "payable",
      "type": "function"
    },
    {
      "inputs": [
        {
          "internalType": "uint256",
          "name": "groupId",
          "type": "uint256"
        }
      ],
      "name": "getGroup",
      "outputs": [
        {
          "internalType": "uint256",
          "name": "size",
          "type": "uint256"
        },
        {
          "internalType": "string",
          "name": "name",
          "type": "string"
        },
        {
          "internalType": "address",
          "name": "creator",
          "type": "address"
        },
        {
          "internalType": "uint256",
          "name": "creationDate",
          "type": "uint256"
        },
        {
          "internalType": "uint32",
          "name": "minimalVotes",
          "type": "uint32"
        },
        {
          "internalType": "uint8",
          "name": "minimalPercentsToAccept",
          "type": "uint8"
        },
        {
          "internalType": "uint256",
          "name": "memberCounter",
          "type": "uint256"
        }
      ],
      "stateMutability": "view",
      "type": "function"
    },
    {
      "inputs": [
        {
          "internalType": "uint256",
          "name": "groupId",
          "type": "uint256"
        },
        {
          "internalType": "uint256",
          "name": "index",
          "type": "uint256"
        }
      ],
      "name": "getGroupContentId",
      "outputs": [
        {
          "internalType": "uint256",
          "name": "id",
          "type": "uint256"
        }
      ],
      "stateMutability": "view",
      "type": "function"
    },
    {
      "inputs": [
        {
          "internalType": "uint256",
          "name": "contentId",
          "type": "uint256"
        }
      ],
      "name": "vote",
      "outputs": [],
      "stateMutability": "nonpayable",
      "type": "function"
    },
    {
      "inputs": [
        {
          "internalType": "uint256",
          "name": "groupId",
          "type": "uint256"
        },
        {
          "internalType": "address",
          "name": "newMember",
          "type": "address"
        }
      ],
      "name": "invite",
      "outputs": [],
      "stateMutability": "payable",
      "type": "function"
    }
  ],
  "bytecode": "0x6080604052336000806101000a81548173ffffffffffffffffffffffffffffffffffffffff021916908373ffffffffffffffffffffffffffffffffffffffff16021790555034801561005057600080fd5b506120c9806100606000396000f3fe6080604052600436106100f35760003560e01c80639dc19bc81161008a578063d24924fe11610059578063d24924fe14610354578063d8cb785e1461037f578063e4f793ed1461039b578063ed990a6c146103c6576100f3565b80639dc19bc8146102665780639dfde201146102a3578063bace4b67146102ce578063ceb6065414610311576100f3565b80637815a4b5116100c65780637815a4b5146101c65780637ae69023146101e257806386cd238a146101fe5780638da5cb5b1461023b576100f3565b80630121b93f146100f857806358c55d321461012157806362a1281b1461015e5780636d6d00ed1461019b575b600080fd5b34801561010457600080fd5b5061011f600480360381019061011a9190611308565b6103f1565b005b34801561012d57600080fd5b5061014860048036038101906101439190611335565b6103f4565b6040516101559190611384565b60405180910390f35b34801561016a57600080fd5b50610185600480360381019061018091906113d5565b610431565b6040516101929190611384565b60405180910390f35b3480156101a757600080fd5b506101b0610449565b6040516101bd9190611384565b60405180910390f35b6101e060048036038101906101db9190611548565b61044f565b005b6101fc60048036038101906101f79190611615565b610766565b005b34801561020a57600080fd5b5061022560048036038101906102209190611655565b61081f565b6040516102329190611384565b60405180910390f35b34801561024757600080fd5b50610250610837565b60405161025d9190611691565b60405180910390f35b34801561027257600080fd5b5061028d600480360381019061028891906116ac565b61085b565b60405161029a9190611384565b60405180910390f35b3480156102af57600080fd5b506102b861088c565b6040516102c59190611384565b60405180910390f35b3480156102da57600080fd5b506102f560048036038101906102f09190611308565b610898565b604051610308979695949392919061179e565b60405180910390f35b34801561031d57600080fd5b5061033860048036038101906103339190611308565b61098f565b60405161034b979695949392919061184f565b60405180910390f35b34801561036057600080fd5b50610369610ab3565b6040516103769190611384565b60405180910390f35b6103996004803603810190610394919061191d565b610ab9565b005b3480156103a757600080fd5b506103b0610f8a565b6040516103bd919061198c565b60405180910390f35b3480156103d257600080fd5b506103db610f8f565b6040516103e8919061198c565b60405180910390f35b50565b600060016000848152602001908152602001600020600801828154811061041e5761041d6119a7565b5b9060005260206000200154905092915050565b60026020528060005260406000206000915090505481565b60075481565b67016345785d8a000034101561049a576040517f08c379a000000000000000000000000000000000000000000000000000000000815260040161049190611a22565b60405180910390fd5b6000829050608060ff16815111156104e7576040517f08c379a00000000000000000000000000000000000000000000000000000000081526004016104de90611ab4565b60405180910390fd5b6000600160008681526020019081526020016000209050600115158160060160003373ffffffffffffffffffffffffffffffffffffffff1673ffffffffffffffffffffffffffffffffffffffff16815260200190815260200160002060009054906101000a900460ff16151514610593576040517f08c379a000000000000000000000000000000000000000000000000000000000815260040161058a90611b46565b60405180910390fd5b6000600660006007600081546105a890611b95565b919050819055815260200190815260200160002090506007548160000181905550838160010181905550848160020190805190602001906105ea92919061121b565b5042816003018190555081600001548160040181905550338160050160006101000a81548173ffffffffffffffffffffffffffffffffffffffff021916908373ffffffffffffffffffffffffffffffffffffffff16021790555081600701600081548092919061065990611b95565b91905055508160080181600001549080600181540180825580915050600190039060005260206000200160009091909190915055806004015481600001547f1ad7f99aaa03a9764d2deff0b2b4194d1085c94b6b48c4a020f58e8aa2d15cfb868460050160009054906101000a900473ffffffffffffffffffffffffffffffffffffffff166040516106ec929190611bde565b60405180910390a3505050600067016345785d8a00003461070d9190611c07565b90506000811115610760573373ffffffffffffffffffffffffffffffffffffffff166108fc829081150290604051600060405180830381858888f1935050505015801561075e573d6000803e3d6000fd5b505b50505050565b67016345785d8a00003410156107b1576040517f08c379a00000000000000000000000000000000000000000000000000000000081526004016107a890611a22565b60405180910390fd5b600067016345785d8a0000346107c79190611c07565b9050600081111561081a573373ffffffffffffffffffffffffffffffffffffffff166108fc829081150290604051600060405180830381858888f19350505050158015610818573d6000803e3d6000fd5b505b505050565b60056020528060005260406000206000915090505481565b60008054906101000a900473ffffffffffffffffffffffffffffffffffffffff1681565b6004602052816000526040600020818154811061087757600080fd5b90600052602060002001600091509150505481565b67016345785d8a000081565b60066020528060005260406000206000915090508060000154908060010154908060020180546108c790611c6a565b80601f01602080910402602001604051908101604052809291908181526020018280546108f390611c6a565b80156109405780601f1061091557610100808354040283529160200191610940565b820191906000526020600020905b81548152906001019060200180831161092357829003601f168201915b5050505050908060030154908060040154908060050160009054906101000a900473ffffffffffffffffffffffffffffffffffffffff16908060050160149054906101000a900460ff16905087565b60006060600080600080600080600160008a81526020019081526020016000209050806007015497508060030180546109c790611c6a565b80601f01602080910402602001604051908101604052809291908181526020018280546109f390611c6a565b8015610a405780601f10610a1557610100808354040283529160200191610a40565b820191906000526020600020905b815481529060010190602001808311610a2357829003601f168201915b505050505096508060010160009054906101000a900473ffffffffffffffffffffffffffffffffffffffff169550806002015494508060040160009054906101000a900463ffffffff1693508060040160049054906101000a900460ff1692508060050154915050919395979092949650565b60035481565b67016345785d8a0000341015610b04576040517f08c379a0000000000000000000000000000000000000000000000000000000008152600401610afb90611a22565b60405180910390fd5b6000839050602060ff1681511115610b51576040517f08c379a0000000000000000000000000000000000000000000000000000000008152600401610b4890611d0e565b60405180910390fd5b610b5a81610f94565b905060011515610b6982611098565b151514610bab576040517f08c379a0000000000000000000000000000000000000000000000000000000008152600401610ba290611da0565b60405180910390fd5b6000818051906020012090506000600260008381526020019081526020016000205414610c0d576040517f08c379a0000000000000000000000000000000000000000000000000000000008152600401610c0490611e0c565b60405180910390fd5b60008463ffffffff1611610c56576040517f08c379a0000000000000000000000000000000000000000000000000000000008152600401610c4d90611e9e565b60405180910390fd5b60648360ff161115610c9d576040517f08c379a0000000000000000000000000000000000000000000000000000000008152600401610c9490611f30565b60405180910390fd5b600360008154610cac90611b95565b9190508190556002600083815260200190815260200160002081905550600060016000600354815260200190815260200160002090506003548160000181905550338160010160006101000a81548173ffffffffffffffffffffffffffffffffffffffff021916908373ffffffffffffffffffffffffffffffffffffffff16021790555042816002018190555082816003019080519060200190610d5192919061121b565b50848160040160006101000a81548163ffffffff021916908363ffffffff160217905550838160040160046101000a81548160ff021916908360ff1602179055506001816005018190555060018160060160003373ffffffffffffffffffffffffffffffffffffffff1673ffffffffffffffffffffffffffffffffffffffff16815260200190815260200160002060006101000a81548160ff0219169083151502179055506000600460003373ffffffffffffffffffffffffffffffffffffffff1673ffffffffffffffffffffffffffffffffffffffff1681526020019081526020016000209050806003549080600181540180825580915050600190039060005260206000200160009091909190915055600560003373ffffffffffffffffffffffffffffffffffffffff1673ffffffffffffffffffffffffffffffffffffffff1681526020019081526020016000206000815480929190610eb390611b95565b91905055503373ffffffffffffffffffffffffffffffffffffffff1682600301604051610ee09190611fef565b60405180910390206003547f82d69c31150dbd3f92007cd0498989438a41c1cc9648edb23b6446228cff53aa60405160405180910390a450505050600067016345785d8a000034610f319190611c07565b90506000811115610f84573373ffffffffffffffffffffffffffffffffffffffff166108fc829081150290604051600060405180830381858888f19350505050158015610f82573d6000803e3d6000fd5b505b50505050565b602081565b608081565b606060005b825181101561108f576000838281518110610fb757610fb66119a7565b5b602001015160f81c60f81b9050604160f81b817effffffffffffffffffffffffffffffffffffffffffffffffffffffffffffff1916101580156110205750605a60f81b817effffffffffffffffffffffffffffffffffffffffffffffffffffffffffffff191611155b1561107b5760208160f81c6110359190612006565b60f81b84838151811061104b5761104a6119a7565b5b60200101907effffffffffffffffffffffffffffffffffffffffffffffffffffffffffffff1916908160001a9053505b50808061108790611b95565b915050610f99565b50819050919050565b600080600183516110a9919061203d565b905060005b835181101561120f5760008482815181106110cc576110cb6119a7565b5b602001015160f81c60f81b9050602060f81b817effffffffffffffffffffffffffffffffffffffffffffffffffffffffffffff1916141561112f576001826111149190611c07565b8314156111275760009350505050611216565b8192506111fb565b607a60f81b817effffffffffffffffffffffffffffffffffffffffffffffffffffffffffffff191611806111885750603060f81b817effffffffffffffffffffffffffffffffffffffffffffffffffffffffffffff1916105b806111e95750606160f81b817effffffffffffffffffffffffffffffffffffffffffffffffffffffffffffff19161080156111e85750603960f81b817effffffffffffffffffffffffffffffffffffffffffffffffffffffffffffff1916115b5b156111fa5760009350505050611216565b5b50808061120790611b95565b9150506110ae565b5060019150505b919050565b82805461122790611c6a565b90600052602060002090601f0160209004810192826112495760008555611290565b82601f1061126257805160ff1916838001178555611290565b82800160010185558215611290579182015b8281111561128f578251825591602001919060010190611274565b5b50905061129d91906112a1565b5090565b5b808211156112ba5760008160009055506001016112a2565b5090565b6000604051905090565b600080fd5b600080fd5b6000819050919050565b6112e5816112d2565b81146112f057600080fd5b50565b600081359050611302816112dc565b92915050565b60006020828403121561131e5761131d6112c8565b5b600061132c848285016112f3565b91505092915050565b6000806040838503121561134c5761134b6112c8565b5b600061135a858286016112f3565b925050602061136b858286016112f3565b9150509250929050565b61137e816112d2565b82525050565b60006020820190506113996000830184611375565b92915050565b6000819050919050565b6113b28161139f565b81146113bd57600080fd5b50565b6000813590506113cf816113a9565b92915050565b6000602082840312156113eb576113ea6112c8565b5b60006113f9848285016113c0565b91505092915050565b600080fd5b600080fd5b6000601f19601f8301169050919050565b7f4e487b7100000000000000000000000000000000000000000000000000000000600052604160045260246000fd5b6114558261140c565b810181811067ffffffffffffffff821117156114745761147361141d565b5b80604052505050565b60006114876112be565b9050611493828261144c565b919050565b600067ffffffffffffffff8211156114b3576114b261141d565b5b6114bc8261140c565b9050602081019050919050565b82818337600083830152505050565b60006114eb6114e684611498565b61147d565b90508281526020810184848401111561150757611506611407565b5b6115128482856114c9565b509392505050565b600082601f83011261152f5761152e611402565b5b813561153f8482602086016114d8565b91505092915050565b600080600060608486031215611561576115606112c8565b5b600061156f868287016112f3565b935050602084013567ffffffffffffffff8111156115905761158f6112cd565b5b61159c8682870161151a565b92505060406115ad868287016113c0565b9150509250925092565b600073ffffffffffffffffffffffffffffffffffffffff82169050919050565b60006115e2826115b7565b9050919050565b6115f2816115d7565b81146115fd57600080fd5b50565b60008135905061160f816115e9565b92915050565b6000806040838503121561162c5761162b6112c8565b5b600061163a858286016112f3565b925050602061164b85828601611600565b9150509250929050565b60006020828403121561166b5761166a6112c8565b5b600061167984828501611600565b91505092915050565b61168b816115d7565b82525050565b60006020820190506116a66000830184611682565b92915050565b600080604083850312156116c3576116c26112c8565b5b60006116d185828601611600565b92505060206116e2858286016112f3565b9150509250929050565b6116f58161139f565b82525050565b600081519050919050565b600082825260208201905092915050565b60005b8381101561173557808201518184015260208101905061171a565b83811115611744576000848401525b50505050565b6000611755826116fb565b61175f8185611706565b935061176f818560208601611717565b6117788161140c565b840191505092915050565b60008115159050919050565b61179881611783565b82525050565b600060e0820190506117b3600083018a611375565b6117c060208301896116ec565b81810360408301526117d2818861174a565b90506117e16060830187611375565b6117ee6080830186611375565b6117fb60a0830185611682565b61180860c083018461178f565b98975050505050505050565b600063ffffffff82169050919050565b61182d81611814565b82525050565b600060ff82169050919050565b61184981611833565b82525050565b600060e082019050611864600083018a611375565b8181036020830152611876818961174a565b90506118856040830188611682565b6118926060830187611375565b61189f6080830186611824565b6118ac60a0830185611840565b6118b960c0830184611375565b98975050505050505050565b6118ce81611814565b81146118d957600080fd5b50565b6000813590506118eb816118c5565b92915050565b6118fa81611833565b811461190557600080fd5b50565b600081359050611917816118f1565b92915050565b600080600060608486031215611936576119356112c8565b5b600084013567ffffffffffffffff811115611954576119536112cd565b5b6119608682870161151a565b9350506020611971868287016118dc565b925050604061198286828701611908565b9150509250925092565b60006020820190506119a16000830184611840565b92915050565b7f4e487b7100000000000000000000000000000000000000000000000000000000600052603260045260246000fd5b7f4e6f7420656e6f7567682066756e647300000000000000000000000000000000600082015250565b6000611a0c601083611706565b9150611a17826119d6565b602082019050919050565b60006020820190508181036000830152611a3b816119ff565b9050919050565b7f4974656d206e616d652068617320746f206265206c657373206f72206571756160008201527f6c20746f20313238206368617261637465727300000000000000000000000000602082015250565b6000611a9e603383611706565b9150611aa982611a42565b604082019050919050565b60006020820190508181036000830152611acd81611a91565b9050919050565b7f53656e6465722068617320746f2062652061206d656d626572206f662067726f60008201527f7570000000000000000000000000000000000000000000000000000000000000602082015250565b6000611b30602283611706565b9150611b3b82611ad4565b604082019050919050565b60006020820190508181036000830152611b5f81611b23565b9050919050565b7f4e487b7100000000000000000000000000000000000000000000000000000000600052601160045260246000fd5b6000611ba0826112d2565b91507fffffffffffffffffffffffffffffffffffffffffffffffffffffffffffffffff821415611bd357611bd2611b66565b5b600182019050919050565b6000604082019050611bf360008301856116ec565b611c006020830184611682565b9392505050565b6000611c12826112d2565b9150611c1d836112d2565b925082821015611c3057611c2f611b66565b5b828203905092915050565b7f4e487b7100000000000000000000000000000000000000000000000000000000600052602260045260246000fd5b60006002820490506001821680611c8257607f821691505b60208210811415611c9657611c95611c3b565b5b50919050565b7f47726f7570206e616d652068617320746f206265206c657373206f722065717560008201527f616c20746f203332206368617261637465727300000000000000000000000000602082015250565b6000611cf8603383611706565b9150611d0382611c9c565b604082019050919050565b60006020820190508181036000830152611d2781611ceb565b9050919050565b7f47726f7570206e616d6520636f6e7461696e7320756e61636365707461626c6560008201527f2073796d626f6c73000000000000000000000000000000000000000000000000602082015250565b6000611d8a602883611706565b9150611d9582611d2e565b604082019050919050565b60006020820190508181036000830152611db981611d7d565b9050919050565b7f537563682061206e616d6520616c726561647920657869737473000000000000600082015250565b6000611df6601a83611706565b9150611e0182611dc0565b602082019050919050565b60006020820190508181036000830152611e2581611de9565b9050919050565b7f4d696e696d616c20766f746573206d757374206265206772656174657220746860008201527f616e207a65726f00000000000000000000000000000000000000000000000000602082015250565b6000611e88602783611706565b9150611e9382611e2c565b604082019050919050565b60006020820190508181036000830152611eb781611e7b565b9050919050565b7f4d696e696d616c2070657263656e747320746f20616363657074206d7573742060008201527f6265206265747765656e203020616e6420313030000000000000000000000000602082015250565b6000611f1a603483611706565b9150611f2582611ebe565b604082019050919050565b60006020820190508181036000830152611f4981611f0d565b9050919050565b600081905092915050565b60008190508160005260206000209050919050565b60008154611f7d81611c6a565b611f878186611f50565b94506001821660008114611fa25760018114611fb357611fe6565b60ff19831686528186019350611fe6565b611fbc85611f5b565b60005b83811015611fde57815481890152600182019150602081019050611fbf565b838801955050505b50505092915050565b6000611ffb8284611f70565b915081905092915050565b600061201182611833565b915061201c83611833565b92508260ff0382111561203257612031611b66565b5b828201905092915050565b6000612048826112d2565b9150612053836112d2565b9250827fffffffffffffffffffffffffffffffffffffffffffffffffffffffffffffffff0382111561208857612087611b66565b5b82820190509291505056fea26469706673582212203364223273e02403c0b4dc837145235b254c38602403333b1f5eb478b8647e0964736f6c634300080a0033",
  "immutableReferences": {},
  "source": "pragma solidity 0.8.10;\r\n\r\nimport \"./util/Strings.sol\";\r\n\r\n/// @title Contract for distributing content protected from censorship\r\n/// @author Dmitry Urusov\r\n/// @notice content is stored as Proof of Existence concept\r\ncontract Censorshield {\r\n    \r\n    /// @notice Maximum string length for group names\r\n    uint8 public constant GroupNameMaxLength = 32;\r\n\r\n    /// @notice Maximum string length for content names\r\n    uint8 public constant ItemNameMaxLength = 128;\r\n\r\n    /// @notice Price to change the storage\r\n    /// @dev There should be more advanced way to impact on user intention for storage change\r\n    uint public constant Price = 0.1 ether;\r\n    \r\n    /// @notice Struct that represents group content\r\n    struct Item {\r\n        uint id;\r\n        bytes32 hash;\r\n        string name;\r\n        uint creationDate;\r\n        uint groupId;\r\n        address author;\r\n        bool isAccepted;\r\n    }\r\n\r\n    /// @notice Struct that represents content\r\n    struct Group {\r\n        uint id;\r\n        address creator;\r\n        uint creationDate;\r\n        string name;\r\n        uint32 minimalVotes;\r\n        uint8 minimalPercentsToAccept;\r\n        uint memberCounter;\r\n        mapping(address => bool) membersMap;\r\n        uint contentCounter;\r\n        uint[] content;\r\n    }\r\n\r\n    /// @notice Keep the information about contract owner to handle the security\r\n    /// @dev Currently sensless. TODO Implement the proxy contract to be able deploy the updates on existed contract (will be very interesting)\r\n    address public owner = msg.sender;\r\n\r\n    /// @notice Mapping of groups ids to group struct.\r\n    /// @dev The reason why this map is internal is solidity limitation\r\n    /// to access to Group.drafts property. Access to this data will be provided by custom getter\r\n    mapping(uint => Group) internal groupsMap;\r\n\r\n    /// @notice Mapping of group names hashes and their ids\r\n    mapping(bytes32 => uint) public groupNamesMap;\r\n\r\n    /// @notice handling the group ids\r\n    uint public groupCounter;\r\n    \r\n    /// @notice Mapping each member to group ids\r\n    mapping(address => uint[]) public memberGroupsMap;\r\n\r\n    /// @notice Mapping each member to groups quantity\r\n    /// @dev Needed to more advanced tracking the groups of member\r\n    mapping(address => uint) public memberGroupsCounterMap;\r\n\r\n    /// @notice Mapping of item ids to items;\r\n    mapping(uint => Item) public itemsMap;\r\n\r\n    /// @notice Item counter to handle the item ids\r\n    uint public itemCounter;\r\n\r\n    /// @notice Emitted when new group is added\r\n    /// @param groupId group identificator\r\n    /// @param name group name\r\n    /// @param creator creator of the group\r\n    event LogAddGroup(uint indexed groupId, string indexed name, address indexed creator);\r\n\r\n    /// @notice Emitted when new content is added to group\r\n    /// @param groupId group identificator to which new content is added\r\n    /// @param itemId content identificator\r\n    /// @param hash hash to check the content existence\r\n    /// @param author creator of the content\r\n    event LogAddItem(uint indexed itemId, uint indexed groupId, bytes32 hash, address author);\r\n\r\n    /// @notice Handle the requirement that transaction has enough fund\r\n    modifier paidEnough() { \r\n        require(msg.value >= Price, \"Not enough funds\"); \r\n        _;\r\n    }\r\n    \r\n    /// @notice Handle a case when user send extra funds and refund it back\r\n    modifier refundExcess() {\r\n        _;\r\n        uint amountToRefund = msg.value - Price;\r\n        if (amountToRefund > 0)\r\n            payable(msg.sender).transfer(amountToRefund);\r\n    }\r\n\r\n    /// @notice Adds new group and assign the sender as a member of this group.\r\n    /// Setup the rules for changing status of content that belongs to this group.\r\n    /// @param name Unique group name\r\n    /// @param _minimalVotes Minimal votes required to change status of the group content\r\n    /// @param _minimalPercentsToAccept Minimal percents of group members to change the group content status (draft to published)\r\n    function addGroup(string memory name, uint32 _minimalVotes, uint8 _minimalPercentsToAccept)\r\n        public\r\n        payable\r\n        paidEnough\r\n        refundExcess\r\n    {\r\n        // Check for max length\r\n        bytes memory nameBytes = bytes(name);\r\n        require (nameBytes.length <= GroupNameMaxLength, \"Group name has to be less or equal to 32 characters\");\r\n\r\n        // Check for unacceptable symbols.\r\n        // Name has to contain only [a-z0-9] and only one space in a row\r\n        nameBytes = Strings.lower(nameBytes);\r\n        require (Strings.areWords(nameBytes) == true, \"Group name contains unacceptable symbols\");\r\n\r\n        // Name is unique for a group\r\n        bytes32 nameHash = keccak256(nameBytes);\r\n        require(groupNamesMap[nameHash] == 0, \"Such a name already exists\");\r\n\r\n        // Check the _minimalVotes\r\n        require(_minimalVotes > 0, \"Minimal votes must be greater than zero\");\r\n\r\n        // Check the _minimalPercentsToAccept\r\n        require(_minimalPercentsToAccept <= 100, \"Minimal percents to accept must be between 0 and 100\");\r\n\r\n        // Start to modify the state\r\n        groupNamesMap[nameHash] = ++groupCounter;\r\n        Group storage group = groupsMap[groupCounter];\r\n        group.id = groupCounter; \r\n        group.creator = msg.sender;\r\n        group.creationDate = block.timestamp;\r\n        group.name = string(nameBytes);\r\n        group.minimalVotes = _minimalVotes;\r\n        group.minimalPercentsToAccept = _minimalPercentsToAccept;\r\n        group.memberCounter = 1;\r\n        group.membersMap[msg.sender] = true;\r\n\r\n        uint[] storage memberGroups = memberGroupsMap[msg.sender];\r\n        memberGroups.push(groupCounter);\r\n\r\n        memberGroupsCounterMap[msg.sender]++;\r\n\r\n        // Emit event\r\n        emit LogAddGroup(groupCounter, group.name, msg.sender);\r\n    }\r\n\r\n    /// @notice Adds new content to the group\r\n    /// @param groupId Group identification to which the content will belong\r\n    /// @param name Content name\r\n    /// @param _hash Hash of the content to provide Proof of Existence concept for related content that off-chained stored\r\n    function addItem(uint groupId, string memory name, bytes32 _hash)\r\n        public\r\n        payable\r\n        paidEnough\r\n        refundExcess\r\n    {\r\n        // Check for max length\r\n        bytes memory nameBytes = bytes(name);\r\n        require (nameBytes.length <= ItemNameMaxLength, \"Item name has to be less or equal to 128 characters\");\r\n\r\n        // Check the access to add new item by this sender\r\n        Group storage group = groupsMap[groupId];\r\n        require (group.membersMap[msg.sender] == true, \"Sender has to be a member of group\");\r\n\r\n        // Start to modify the state\r\n        Item storage item = itemsMap[++itemCounter];\r\n        item.id = itemCounter;\r\n        item.hash = _hash;\r\n        item.name = name;\r\n        item.creationDate = block.timestamp;\r\n        item.groupId = group.id;\r\n        item.author = msg.sender;\r\n\r\n        group.contentCounter++;\r\n        group.content.push(item.id);\r\n\r\n        // Emit event\r\n        emit LogAddItem(item.id, item.groupId, _hash, item.author);\r\n    }\r\n\r\n    /// @notice Getter to provide an information about group by its identificator\r\n    /// @param groupId Group identification for desired group\r\n    function getGroup(uint groupId)\r\n        public\r\n        view\r\n        returns (uint size, \r\n            string memory name,\r\n            address creator,\r\n            uint creationDate,\r\n            uint32 minimalVotes,\r\n            uint8 minimalPercentsToAccept,\r\n            uint memberCounter)\r\n    {\r\n        Group storage group = groupsMap[groupId];\r\n        size = group.contentCounter;\r\n        name = group.name;\r\n        creator = group.creator;\r\n        creationDate = group.creationDate;\r\n        minimalVotes = group.minimalVotes;\r\n        minimalPercentsToAccept = group.minimalPercentsToAccept;\r\n        memberCounter = group.memberCounter;\r\n    }\r\n\r\n    /// @notice Getter to provide a content identificator by index of this content\r\n    /// @param groupId Group identification to which belong the requested content\r\n    /// @param index Index of the content for that group\r\n    function getGroupContentId(uint groupId, uint index)\r\n        public\r\n        view\r\n        returns (uint id)\r\n    {\r\n        id = groupsMap[groupId].content[index];\r\n    }\r\n\r\n    /// @notice TODO Allows to vote for a content to move it to published status\r\n    function vote(uint contentId)\r\n        public\r\n    {\r\n\r\n    }\r\n\r\n    /// @notice TODO Allows to invite a new member to group\r\n    function invite(uint groupId, address newMember)\r\n        public\r\n        payable\r\n        paidEnough\r\n        refundExcess\r\n    {\r\n\r\n    }\r\n}",
  "sourcePath": "D:\\Projects\\blockchain-developer-bootcamp-final-project\\contracts\\Censorshield.sol",
  "compiler": {
    "name": "solc",
    "version": "0.8.10+commit.fc410830.Emscripten.clang"
  },
  "schemaVersion": "3.4.3",
  "updatedAt": "2021-11-28T16:39:26.065Z",
  "devdoc": {
    "author": "Dmitry Urusov",
    "events": {
      "LogAddGroup(uint256,string,address)": {
        "params": {
          "creator": "creator of the group",
          "groupId": "group identificator",
          "name": "group name"
        }
      },
      "LogAddItem(uint256,uint256,bytes32,address)": {
        "params": {
          "author": "creator of the content",
          "groupId": "group identificator to which new content is added",
          "hash": "hash to check the content existence",
          "itemId": "content identificator"
        }
      }
    },
    "kind": "dev",
    "methods": {
      "addGroup(string,uint32,uint8)": {
        "params": {
          "_minimalPercentsToAccept": "Minimal percents of group members to change the group content status (draft to published)",
          "_minimalVotes": "Minimal votes required to change status of the group content",
          "name": "Unique group name"
        }
      },
      "addItem(uint256,string,bytes32)": {
        "params": {
          "_hash": "Hash of the content to provide Proof of Existence concept for related content that off-chained stored",
          "groupId": "Group identification to which the content will belong",
          "name": "Content name"
        }
      },
      "getGroup(uint256)": {
        "params": {
          "groupId": "Group identification for desired group"
        }
      },
      "getGroupContentId(uint256,uint256)": {
        "params": {
          "groupId": "Group identification to which belong the requested content",
          "index": "Index of the content for that group"
        }
      }
    },
    "stateVariables": {
      "Price": {
        "details": "There should be more advanced way to impact on user intention for storage change"
      },
      "groupsMap": {
        "details": "The reason why this map is internal is solidity limitation to access to Group.drafts property. Access to this data will be provided by custom getter"
      },
      "memberGroupsCounterMap": {
        "details": "Needed to more advanced tracking the groups of member"
      },
      "owner": {
        "details": "Currently sensless. TODO Implement the proxy contract to be able deploy the updates on existed contract (will be very interesting)"
      }
    },
    "title": "Contract for distributing content protected from censorship",
    "version": 1
  },
  "userdoc": {
    "events": {
      "LogAddGroup(uint256,string,address)": {
        "notice": "Emitted when new group is added"
      },
      "LogAddItem(uint256,uint256,bytes32,address)": {
        "notice": "Emitted when new content is added to group"
      }
    },
    "kind": "user",
    "methods": {
      "GroupNameMaxLength()": {
        "notice": "Maximum string length for group names"
      },
      "ItemNameMaxLength()": {
        "notice": "Maximum string length for content names"
      },
      "Price()": {
        "notice": "Price to change the storage"
      },
      "addGroup(string,uint32,uint8)": {
        "notice": "Adds new group and assign the sender as a member of this group. Setup the rules for changing status of content that belongs to this group."
      },
      "addItem(uint256,string,bytes32)": {
        "notice": "Adds new content to the group"
      },
      "getGroup(uint256)": {
        "notice": "Getter to provide an information about group by its identificator"
      },
      "getGroupContentId(uint256,uint256)": {
        "notice": "Getter to provide a content identificator by index of this content"
      },
      "groupCounter()": {
        "notice": "handling the group ids"
      },
      "groupNamesMap(bytes32)": {
        "notice": "Mapping of group names hashes and their ids"
      },
      "invite(uint256,address)": {
        "notice": "TODO Allows to invite a new member to group"
      },
      "itemCounter()": {
        "notice": "Item counter to handle the item ids"
      },
      "itemsMap(uint256)": {
        "notice": "Mapping of item ids to items;"
      },
      "memberGroupsCounterMap(address)": {
        "notice": "Mapping each member to groups quantity"
      },
      "memberGroupsMap(address,uint256)": {
        "notice": "Mapping each member to group ids"
      },
      "owner()": {
        "notice": "Keep the information about contract owner to handle the security"
      },
      "vote(uint256)": {
        "notice": "TODO Allows to vote for a content to move it to published status"
      }
    },
    "notice": "content is stored as Proof of Existence concept",
    "version": 1
  }
}