{
  "contractName": "Censorshield",
  "abi": [
    {
      "anonymous": false,
      "inputs": [
        {
          "indexed": true,
          "internalType": "uint256",
          "name": "groupId",
          "type": "uint256"
        },
        {
          "indexed": true,
          "internalType": "string",
          "name": "name",
          "type": "string"
        },
        {
          "indexed": true,
          "internalType": "address",
          "name": "creator",
          "type": "address"
        }
      ],
      "name": "LogAddGroup",
      "type": "event"
    },
    {
      "anonymous": false,
      "inputs": [
        {
          "indexed": true,
          "internalType": "uint256",
          "name": "itemId",
          "type": "uint256"
        },
        {
          "indexed": true,
          "internalType": "uint256",
          "name": "groupId",
          "type": "uint256"
        },
        {
          "indexed": false,
          "internalType": "bytes32",
          "name": "hash",
          "type": "bytes32"
        },
        {
          "indexed": false,
          "internalType": "address",
          "name": "author",
          "type": "address"
        }
      ],
      "name": "LogAddItem",
      "type": "event"
    },
    {
      "inputs": [],
      "name": "GroupNameMaxLength",
      "outputs": [
        {
          "internalType": "uint8",
          "name": "",
          "type": "uint8"
        }
      ],
      "stateMutability": "view",
      "type": "function",
      "constant": true
    },
    {
      "inputs": [],
      "name": "ItemNameMaxLength",
      "outputs": [
        {
          "internalType": "uint8",
          "name": "",
          "type": "uint8"
        }
      ],
      "stateMutability": "view",
      "type": "function",
      "constant": true
    },
    {
      "inputs": [],
      "name": "Price",
      "outputs": [
        {
          "internalType": "uint256",
          "name": "",
          "type": "uint256"
        }
      ],
      "stateMutability": "view",
      "type": "function",
      "constant": true
    },
    {
      "inputs": [],
      "name": "groupCounter",
      "outputs": [
        {
          "internalType": "uint256",
          "name": "",
          "type": "uint256"
        }
      ],
      "stateMutability": "view",
      "type": "function",
      "constant": true
    },
    {
      "inputs": [
        {
          "internalType": "bytes32",
          "name": "",
          "type": "bytes32"
        }
      ],
      "name": "groupNamesMap",
      "outputs": [
        {
          "internalType": "uint256",
          "name": "",
          "type": "uint256"
        }
      ],
      "stateMutability": "view",
      "type": "function",
      "constant": true
    },
    {
      "inputs": [],
      "name": "itemCounter",
      "outputs": [
        {
          "internalType": "uint256",
          "name": "",
          "type": "uint256"
        }
      ],
      "stateMutability": "view",
      "type": "function",
      "constant": true
    },
    {
      "inputs": [
        {
          "internalType": "uint256",
          "name": "",
          "type": "uint256"
        }
      ],
      "name": "itemsMap",
      "outputs": [
        {
          "internalType": "uint256",
          "name": "id",
          "type": "uint256"
        },
        {
          "internalType": "bytes32",
          "name": "hash",
          "type": "bytes32"
        },
        {
          "internalType": "string",
          "name": "name",
          "type": "string"
        },
        {
          "internalType": "uint256",
          "name": "creationDate",
          "type": "uint256"
        },
        {
          "internalType": "uint256",
          "name": "groupId",
          "type": "uint256"
        },
        {
          "internalType": "address",
          "name": "author",
          "type": "address"
        }
      ],
      "stateMutability": "view",
      "type": "function",
      "constant": true
    },
    {
      "inputs": [
        {
          "internalType": "address",
          "name": "",
          "type": "address"
        }
      ],
      "name": "memberGroupsCounterMap",
      "outputs": [
        {
          "internalType": "uint256",
          "name": "",
          "type": "uint256"
        }
      ],
      "stateMutability": "view",
      "type": "function",
      "constant": true
    },
    {
      "inputs": [
        {
          "internalType": "address",
          "name": "",
          "type": "address"
        },
        {
          "internalType": "uint256",
          "name": "",
          "type": "uint256"
        }
      ],
      "name": "memberGroupsMap",
      "outputs": [
        {
          "internalType": "uint256",
          "name": "",
          "type": "uint256"
        }
      ],
      "stateMutability": "view",
      "type": "function",
      "constant": true
    },
    {
      "inputs": [],
      "name": "owner",
      "outputs": [
        {
          "internalType": "address",
          "name": "",
          "type": "address"
        }
      ],
      "stateMutability": "view",
      "type": "function",
      "constant": true
    },
    {
      "inputs": [
        {
          "internalType": "string",
          "name": "name",
          "type": "string"
        },
        {
          "internalType": "uint32",
          "name": "_minimalVotes",
          "type": "uint32"
        },
        {
          "internalType": "uint8",
          "name": "_minimalPercentsToAccept",
          "type": "uint8"
        }
      ],
      "name": "addGroup",
      "outputs": [],
      "stateMutability": "payable",
      "type": "function",
      "payable": true
    },
    {
      "inputs": [
        {
          "internalType": "uint256",
          "name": "groupId",
          "type": "uint256"
        },
        {
          "internalType": "string",
          "name": "name",
          "type": "string"
        },
        {
          "internalType": "bytes32",
          "name": "_hash",
          "type": "bytes32"
        }
      ],
      "name": "addItem",
      "outputs": [],
      "stateMutability": "payable",
      "type": "function",
      "payable": true
    },
    {
      "inputs": [
        {
          "internalType": "uint256",
          "name": "groupId",
          "type": "uint256"
        }
      ],
      "name": "getGroup",
      "outputs": [
        {
          "internalType": "uint256",
          "name": "size",
          "type": "uint256"
        },
        {
          "internalType": "string",
          "name": "name",
          "type": "string"
        },
        {
          "internalType": "address",
          "name": "creator",
          "type": "address"
        },
        {
          "internalType": "uint256",
          "name": "creationDate",
          "type": "uint256"
        },
        {
          "internalType": "uint32",
          "name": "minimalVotes",
          "type": "uint32"
        },
        {
          "internalType": "uint8",
          "name": "minimalPercentsToAccept",
          "type": "uint8"
        },
        {
          "internalType": "uint256",
          "name": "memberCounter",
          "type": "uint256"
        }
      ],
      "stateMutability": "view",
      "type": "function",
      "constant": true
    }
  ],
  "bytecode": "0x6080604052336000806101000a81548173ffffffffffffffffffffffffffffffffffffffff021916908373ffffffffffffffffffffffffffffffffffffffff16021790555034801561005057600080fd5b50612018806100606000396000f3fe6080604052600436106100c25760003560e01c80639dfde2011161007f578063d24924fe11610059578063d24924fe146102a0578063d8cb785e146102cb578063e4f793ed146102e7578063ed990a6c14610312576100c2565b80639dfde201146101f0578063bace4b671461021b578063ceb606541461025d576100c2565b806362a1281b146100c75780636d6d00ed146101045780637815a4b51461012f57806386cd238a1461014b5780638da5cb5b146101885780639dc19bc8146101b3575b600080fd5b3480156100d357600080fd5b506100ee60048036038101906100e99190611300565b61033d565b6040516100fb9190611346565b60405180910390f35b34801561011057600080fd5b50610119610355565b6040516101269190611346565b60405180910390f35b610149600480360381019061014491906114d3565b61035b565b005b34801561015757600080fd5b50610172600480360381019061016d91906115a0565b61063b565b60405161017f9190611346565b60405180910390f35b34801561019457600080fd5b5061019d610653565b6040516101aa91906115dc565b60405180910390f35b3480156101bf57600080fd5b506101da60048036038101906101d591906115f7565b610677565b6040516101e79190611346565b60405180910390f35b3480156101fc57600080fd5b506102056106a8565b6040516102129190611346565b60405180910390f35b34801561022757600080fd5b50610242600480360381019061023d9190611637565b6106b4565b604051610254969594939291906116fb565b60405180910390f35b34801561026957600080fd5b50610284600480360381019061027f9190611637565b610798565b604051610297979695949392919061179e565b60405180910390f35b3480156102ac57600080fd5b506102b56108bf565b6040516102c29190611346565b60405180910390f35b6102e560048036038101906102e0919061186c565b6108c5565b005b3480156102f357600080fd5b506102fc610d96565b60405161030991906118db565b60405180910390f35b34801561031e57600080fd5b50610327610d9b565b60405161033491906118db565b60405180910390f35b60026020528060005260406000206000915090505481565b60075481565b67016345785d8a00003410156103a6576040517f08c379a000000000000000000000000000000000000000000000000000000000815260040161039d90611942565b60405180910390fd5b6000829050608060ff16815111156103f3576040517f08c379a00000000000000000000000000000000000000000000000000000000081526004016103ea906119d4565b60405180910390fd5b6000600160008681526020019081526020016000209050600115158160060160003373ffffffffffffffffffffffffffffffffffffffff1673ffffffffffffffffffffffffffffffffffffffff16815260200190815260200160002060009054906101000a900460ff1615151461049f576040517f08c379a000000000000000000000000000000000000000000000000000000000815260040161049690611a66565b60405180910390fd5b6000600660006007600081546104b490611ab5565b919050819055815260200190815260200160002090506007548160000181905550838160010181905550848160020190805190602001906104f6929190611213565b5042816003018190555081600001548160040181905550338160050160006101000a81548173ffffffffffffffffffffffffffffffffffffffff021916908373ffffffffffffffffffffffffffffffffffffffff160217905550610561826007018260000154610da0565b50806004015481600001547f1ad7f99aaa03a9764d2deff0b2b4194d1085c94b6b48c4a020f58e8aa2d15cfb868460050160009054906101000a900473ffffffffffffffffffffffffffffffffffffffff166040516105c1929190611afe565b60405180910390a3505050600067016345785d8a0000346105e29190611b27565b90506000811115610635573373ffffffffffffffffffffffffffffffffffffffff166108fc829081150290604051600060405180830381858888f19350505050158015610633573d6000803e3d6000fd5b505b50505050565b60056020528060005260406000206000915090505481565b60008054906101000a900473ffffffffffffffffffffffffffffffffffffffff1681565b6004602052816000526040600020818154811061069357600080fd5b90600052602060002001600091509150505481565b67016345785d8a000081565b60066020528060005260406000206000915090508060000154908060010154908060020180546106e390611b8a565b80601f016020809104026020016040519081016040528092919081815260200182805461070f90611b8a565b801561075c5780601f106107315761010080835404028352916020019161075c565b820191906000526020600020905b81548152906001019060200180831161073f57829003601f168201915b5050505050908060030154908060040154908060050160009054906101000a900473ffffffffffffffffffffffffffffffffffffffff16905086565b60006060600080600080600080600160008a81526020019081526020016000209050806007016000015497508060030180546107d390611b8a565b80601f01602080910402602001604051908101604052809291908181526020018280546107ff90611b8a565b801561084c5780601f106108215761010080835404028352916020019161084c565b820191906000526020600020905b81548152906001019060200180831161082f57829003601f168201915b505050505096508060010160009054906101000a900473ffffffffffffffffffffffffffffffffffffffff169550806002015494508060040160009054906101000a900463ffffffff1693508060040160049054906101000a900460ff1692508060050154915050919395979092949650565b60035481565b67016345785d8a0000341015610910576040517f08c379a000000000000000000000000000000000000000000000000000000000815260040161090790611942565b60405180910390fd5b6000839050602060ff168151111561095d576040517f08c379a000000000000000000000000000000000000000000000000000000000815260040161095490611c2e565b60405180910390fd5b61096681610db6565b90506001151561097582610eba565b1515146109b7576040517f08c379a00000000000000000000000000000000000000000000000000000000081526004016109ae90611cc0565b60405180910390fd5b6000818051906020012090506000600260008381526020019081526020016000205414610a19576040517f08c379a0000000000000000000000000000000000000000000000000000000008152600401610a1090611d2c565b60405180910390fd5b60008463ffffffff1611610a62576040517f08c379a0000000000000000000000000000000000000000000000000000000008152600401610a5990611dbe565b60405180910390fd5b60648360ff161115610aa9576040517f08c379a0000000000000000000000000000000000000000000000000000000008152600401610aa090611e50565b60405180910390fd5b600360008154610ab890611ab5565b9190508190556002600083815260200190815260200160002081905550600060016000600354815260200190815260200160002090506003548160000181905550338160010160006101000a81548173ffffffffffffffffffffffffffffffffffffffff021916908373ffffffffffffffffffffffffffffffffffffffff16021790555042816002018190555082816003019080519060200190610b5d929190611213565b50848160040160006101000a81548163ffffffff021916908363ffffffff160217905550838160040160046101000a81548160ff021916908360ff1602179055506001816005018190555060018160060160003373ffffffffffffffffffffffffffffffffffffffff1673ffffffffffffffffffffffffffffffffffffffff16815260200190815260200160002060006101000a81548160ff0219169083151502179055506000600460003373ffffffffffffffffffffffffffffffffffffffff1673ffffffffffffffffffffffffffffffffffffffff1681526020019081526020016000209050806003549080600181540180825580915050600190039060005260206000200160009091909190915055600560003373ffffffffffffffffffffffffffffffffffffffff1673ffffffffffffffffffffffffffffffffffffffff1681526020019081526020016000206000815480929190610cbf90611ab5565b91905055503373ffffffffffffffffffffffffffffffffffffffff1682600301604051610cec9190611f0f565b60405180910390206003547f82d69c31150dbd3f92007cd0498989438a41c1cc9648edb23b6446228cff53aa60405160405180910390a450505050600067016345785d8a000034610d3d9190611b27565b90506000811115610d90573373ffffffffffffffffffffffffffffffffffffffff166108fc829081150290604051600060405180830381858888f19350505050158015610d8e573d6000803e3d6000fd5b505b50505050565b602081565b608081565b6000610dae8383600161103d565b905092915050565b606060005b8251811015610eb1576000838281518110610dd957610dd8611f26565b5b602001015160f81c60f81b9050604160f81b817effffffffffffffffffffffffffffffffffffffffffffffffffffffffffffff191610158015610e425750605a60f81b817effffffffffffffffffffffffffffffffffffffffffffffffffffffffffffff191611155b15610e9d5760208160f81c610e579190611f55565b60f81b848381518110610e6d57610e6c611f26565b5b60200101907effffffffffffffffffffffffffffffffffffffffffffffffffffffffffffff1916908160001a9053505b508080610ea990611ab5565b915050610dbb565b50819050919050565b60008060018351610ecb9190611f8c565b905060005b8351811015611031576000848281518110610eee57610eed611f26565b5b602001015160f81c60f81b9050602060f81b817effffffffffffffffffffffffffffffffffffffffffffffffffffffffffffff19161415610f5157600182610f369190611b27565b831415610f495760009350505050611038565b81925061101d565b607a60f81b817effffffffffffffffffffffffffffffffffffffffffffffffffffffffffffff19161180610faa5750603060f81b817effffffffffffffffffffffffffffffffffffffffffffffffffffffffffffff1916105b8061100b5750606160f81b817effffffffffffffffffffffffffffffffffffffffffffffffffffffffffffff191610801561100a5750603960f81b817effffffffffffffffffffffffffffffffffffffffffffffffffffffffffffff1916115b5b1561101c5760009350505050611038565b5b50808061102990611ab5565b915050610ed0565b5060019150505b919050565b600061104c8460008585611055565b90509392505050565b600061106185846110f3565b158015611074575061107385856110f3565b5b156110e65760008560010160008681526020019081526020016000206000841515151581526020019081526020016000205490506110b4868686866111ae565b6110c0868583866111ae565b60018660000160008282546110d59190611f8c565b9250508190555060019150506110eb565b600090505b949350505050565b60008083600101600084815260200190815260200160002060008015151515815260200190815260200160002054148015611159575060008360010160008481526020019081526020016000206000600115151515815260200190815260200160002054145b156111a357818360010160008081526020019081526020016000206000600115151515815260200190815260200160002054141561119a57600190506111a8565b600090506111a8565b600190505b92915050565b828460010160008481526020019081526020016000206000831515151515815260200190815260200160002081905550818460010160008581526020019081526020016000206000831515151581526020019081526020016000208190555050505050565b82805461121f90611b8a565b90600052602060002090601f0160209004810192826112415760008555611288565b82601f1061125a57805160ff1916838001178555611288565b82800160010185558215611288579182015b8281111561128757825182559160200191906001019061126c565b5b5090506112959190611299565b5090565b5b808211156112b257600081600090555060010161129a565b5090565b6000604051905090565b600080fd5b600080fd5b6000819050919050565b6112dd816112ca565b81146112e857600080fd5b50565b6000813590506112fa816112d4565b92915050565b600060208284031215611316576113156112c0565b5b6000611324848285016112eb565b91505092915050565b6000819050919050565b6113408161132d565b82525050565b600060208201905061135b6000830184611337565b92915050565b61136a8161132d565b811461137557600080fd5b50565b60008135905061138781611361565b92915050565b600080fd5b600080fd5b6000601f19601f8301169050919050565b7f4e487b7100000000000000000000000000000000000000000000000000000000600052604160045260246000fd5b6113e082611397565b810181811067ffffffffffffffff821117156113ff576113fe6113a8565b5b80604052505050565b60006114126112b6565b905061141e82826113d7565b919050565b600067ffffffffffffffff82111561143e5761143d6113a8565b5b61144782611397565b9050602081019050919050565b82818337600083830152505050565b600061147661147184611423565b611408565b90508281526020810184848401111561149257611491611392565b5b61149d848285611454565b509392505050565b600082601f8301126114ba576114b961138d565b5b81356114ca848260208601611463565b91505092915050565b6000806000606084860312156114ec576114eb6112c0565b5b60006114fa86828701611378565b935050602084013567ffffffffffffffff81111561151b5761151a6112c5565b5b611527868287016114a5565b9250506040611538868287016112eb565b9150509250925092565b600073ffffffffffffffffffffffffffffffffffffffff82169050919050565b600061156d82611542565b9050919050565b61157d81611562565b811461158857600080fd5b50565b60008135905061159a81611574565b92915050565b6000602082840312156115b6576115b56112c0565b5b60006115c48482850161158b565b91505092915050565b6115d681611562565b82525050565b60006020820190506115f160008301846115cd565b92915050565b6000806040838503121561160e5761160d6112c0565b5b600061161c8582860161158b565b925050602061162d85828601611378565b9150509250929050565b60006020828403121561164d5761164c6112c0565b5b600061165b84828501611378565b91505092915050565b61166d816112ca565b82525050565b600081519050919050565b600082825260208201905092915050565b60005b838110156116ad578082015181840152602081019050611692565b838111156116bc576000848401525b50505050565b60006116cd82611673565b6116d7818561167e565b93506116e781856020860161168f565b6116f081611397565b840191505092915050565b600060c0820190506117106000830189611337565b61171d6020830188611664565b818103604083015261172f81876116c2565b905061173e6060830186611337565b61174b6080830185611337565b61175860a08301846115cd565b979650505050505050565b600063ffffffff82169050919050565b61177c81611763565b82525050565b600060ff82169050919050565b61179881611782565b82525050565b600060e0820190506117b3600083018a611337565b81810360208301526117c581896116c2565b90506117d460408301886115cd565b6117e16060830187611337565b6117ee6080830186611773565b6117fb60a083018561178f565b61180860c0830184611337565b98975050505050505050565b61181d81611763565b811461182857600080fd5b50565b60008135905061183a81611814565b92915050565b61184981611782565b811461185457600080fd5b50565b60008135905061186681611840565b92915050565b600080600060608486031215611885576118846112c0565b5b600084013567ffffffffffffffff8111156118a3576118a26112c5565b5b6118af868287016114a5565b93505060206118c08682870161182b565b92505060406118d186828701611857565b9150509250925092565b60006020820190506118f0600083018461178f565b92915050565b7f4e6f7420656e6f7567682066756e647300000000000000000000000000000000600082015250565b600061192c60108361167e565b9150611937826118f6565b602082019050919050565b6000602082019050818103600083015261195b8161191f565b9050919050565b7f4974656d206e616d652068617320746f206265206c657373206f72206571756160008201527f6c20746f20313238206368617261637465727300000000000000000000000000602082015250565b60006119be60338361167e565b91506119c982611962565b604082019050919050565b600060208201905081810360008301526119ed816119b1565b9050919050565b7f53656e6465722068617320746f2062652061206d656d626572206f662067726f60008201527f7570000000000000000000000000000000000000000000000000000000000000602082015250565b6000611a5060228361167e565b9150611a5b826119f4565b604082019050919050565b60006020820190508181036000830152611a7f81611a43565b9050919050565b7f4e487b7100000000000000000000000000000000000000000000000000000000600052601160045260246000fd5b6000611ac08261132d565b91507fffffffffffffffffffffffffffffffffffffffffffffffffffffffffffffffff821415611af357611af2611a86565b5b600182019050919050565b6000604082019050611b136000830185611664565b611b2060208301846115cd565b9392505050565b6000611b328261132d565b9150611b3d8361132d565b925082821015611b5057611b4f611a86565b5b828203905092915050565b7f4e487b7100000000000000000000000000000000000000000000000000000000600052602260045260246000fd5b60006002820490506001821680611ba257607f821691505b60208210811415611bb657611bb5611b5b565b5b50919050565b7f47726f7570206e616d652068617320746f206265206c657373206f722065717560008201527f616c20746f203332206368617261637465727300000000000000000000000000602082015250565b6000611c1860338361167e565b9150611c2382611bbc565b604082019050919050565b60006020820190508181036000830152611c4781611c0b565b9050919050565b7f47726f7570206e616d6520636f6e7461696e7320756e61636365707461626c6560008201527f2073796d626f6c73000000000000000000000000000000000000000000000000602082015250565b6000611caa60288361167e565b9150611cb582611c4e565b604082019050919050565b60006020820190508181036000830152611cd981611c9d565b9050919050565b7f537563682061206e616d6520616c726561647920657869737473000000000000600082015250565b6000611d16601a8361167e565b9150611d2182611ce0565b602082019050919050565b60006020820190508181036000830152611d4581611d09565b9050919050565b7f4d696e696d616c20766f746573206d757374206265206772656174657220746860008201527f616e207a65726f00000000000000000000000000000000000000000000000000602082015250565b6000611da860278361167e565b9150611db382611d4c565b604082019050919050565b60006020820190508181036000830152611dd781611d9b565b9050919050565b7f4d696e696d616c2070657263656e747320746f20616363657074206d7573742060008201527f6265206265747765656e203020616e6420313030000000000000000000000000602082015250565b6000611e3a60348361167e565b9150611e4582611dde565b604082019050919050565b60006020820190508181036000830152611e6981611e2d565b9050919050565b600081905092915050565b60008190508160005260206000209050919050565b60008154611e9d81611b8a565b611ea78186611e70565b94506001821660008114611ec25760018114611ed357611f06565b60ff19831686528186019350611f06565b611edc85611e7b565b60005b83811015611efe57815481890152600182019150602081019050611edf565b838801955050505b50505092915050565b6000611f1b8284611e90565b915081905092915050565b7f4e487b7100000000000000000000000000000000000000000000000000000000600052603260045260246000fd5b6000611f6082611782565b9150611f6b83611782565b92508260ff03821115611f8157611f80611a86565b5b828201905092915050565b6000611f978261132d565b9150611fa28361132d565b9250827fffffffffffffffffffffffffffffffffffffffffffffffffffffffffffffffff03821115611fd757611fd6611a86565b5b82820190509291505056fea264697066735822122089149acd721da8838a5f30a70d151ace0ee2d31579c30cbc582566ef7598c54c64736f6c634300080a0033",
  "immutableReferences": {},
  "source": "pragma solidity 0.8.10;\r\n\r\nimport \"solidity-linked-list/contracts/StructuredLinkedList.sol\";\r\nimport \"./util/Strings.sol\";\r\n\r\ncontract Censorshield {\r\n    \r\n    uint8 public constant GroupNameMaxLength = 32;\r\n    uint8 public constant ItemNameMaxLength = 128;\r\n    uint public constant Price = 0.1 ether;\r\n    \r\n    struct Item {\r\n        uint id;\r\n        bytes32 hash;\r\n        string name;\r\n        uint creationDate;\r\n        uint groupId;\r\n        address author;\r\n    }\r\n\r\n    struct Group {\r\n        uint id;\r\n        address creator;\r\n        uint creationDate;\r\n        string name;\r\n        uint32 minimalVotes;\r\n        uint8 minimalPercentsToAccept;\r\n        uint memberCounter;\r\n        mapping(address => bool) membersMap;\r\n        StructuredLinkedList.List drafts;\r\n        uint[] content;\r\n    }\r\n\r\n    /// @notice Keep the information about contract owner to handle the security\r\n    address public owner = msg.sender;\r\n\r\n    /// @notice Mapping of groups ids to group struct.\r\n    /// @dev The reason why this map is internal is solidity limitation\r\n    /// to access to Group.drafts property. Access to this data will be provided by custom getter\r\n    mapping(uint => Group) internal groupsMap;\r\n\r\n    /// @notice Mapping of group names hashes and their ids\r\n    mapping(bytes32 => uint) public groupNamesMap;\r\n\r\n    /// @notice handling the group ids\r\n    uint public groupCounter;\r\n    \r\n    /// @notice Mapping each member to group ids\r\n    mapping(address => uint[]) public memberGroupsMap;\r\n\r\n    /// @notice Mapping each member to groups quantity\r\n    /// @dev Needed to more advanced tracking the groups of member\r\n    mapping(address => uint) public memberGroupsCounterMap;\r\n\r\n    /// @notice Mapping of item ids to items;\r\n    mapping(uint => Item) public itemsMap;\r\n\r\n    /// @notice Item counter to handle the item ids\r\n    uint public itemCounter;\r\n\r\n    event LogAddGroup(uint indexed groupId, string indexed name, address indexed creator);\r\n    event LogAddItem(uint indexed itemId, uint indexed groupId, bytes32 hash, address author);\r\n\r\n    modifier paidEnough() { \r\n        require(msg.value >= Price, \"Not enough funds\"); \r\n        _;\r\n    }\r\n    \r\n    modifier refundExcess() {\r\n        _;\r\n        uint amountToRefund = msg.value - Price;\r\n        if (amountToRefund > 0)\r\n            payable(msg.sender).transfer(amountToRefund);\r\n    }\r\n\r\n    function addGroup(string memory name, uint32 _minimalVotes, uint8 _minimalPercentsToAccept)\r\n        public\r\n        payable\r\n        paidEnough\r\n        refundExcess\r\n    {\r\n        // Check for max length\r\n        bytes memory nameBytes = bytes(name);\r\n        require (nameBytes.length <= GroupNameMaxLength, \"Group name has to be less or equal to 32 characters\");\r\n\r\n        // Check for unacceptable symbols.\r\n        // Name has to contain only [a-z0-9] and only one space in a row\r\n        nameBytes = Strings.lower(nameBytes);\r\n        require (Strings.areWords(nameBytes) == true, \"Group name contains unacceptable symbols\");\r\n\r\n        // Name is unique for a group\r\n        bytes32 nameHash = keccak256(nameBytes);\r\n        require(groupNamesMap[nameHash] == 0, \"Such a name already exists\");\r\n\r\n        // Check the _minimalVotes\r\n        require(_minimalVotes > 0, \"Minimal votes must be greater than zero\");\r\n\r\n        // Check the _minimalPercentsToAccept\r\n        require(_minimalPercentsToAccept <= 100, \"Minimal percents to accept must be between 0 and 100\");\r\n\r\n        // Start to modify the state\r\n        groupNamesMap[nameHash] = ++groupCounter;\r\n        Group storage group = groupsMap[groupCounter];\r\n        group.id = groupCounter; \r\n        group.creator = msg.sender;\r\n        group.creationDate = block.timestamp;\r\n        group.name = string(nameBytes);\r\n        group.minimalVotes = _minimalVotes;\r\n        group.minimalPercentsToAccept = _minimalPercentsToAccept;\r\n        group.memberCounter = 1;\r\n        group.membersMap[msg.sender] = true;\r\n\r\n        uint[] storage memberGroups = memberGroupsMap[msg.sender];\r\n        memberGroups.push(groupCounter);\r\n\r\n        memberGroupsCounterMap[msg.sender]++;\r\n\r\n        // Emit event\r\n        emit LogAddGroup(groupCounter, group.name, msg.sender);\r\n    }\r\n\r\n    function addItem(uint groupId, string memory name, bytes32 _hash)\r\n        public\r\n        payable\r\n        paidEnough\r\n        refundExcess\r\n    {\r\n        // Check for max length\r\n        bytes memory nameBytes = bytes(name);\r\n        require (nameBytes.length <= ItemNameMaxLength, \"Item name has to be less or equal to 128 characters\");\r\n\r\n        // Check the access to add new item by this sender\r\n        Group storage group = groupsMap[groupId];\r\n        require (group.membersMap[msg.sender] == true, \"Sender has to be a member of group\");\r\n\r\n        // Start to modify the state\r\n        Item storage item = itemsMap[++itemCounter];\r\n        item.id = itemCounter;\r\n        item.hash = _hash;\r\n        item.name = name;\r\n        item.creationDate = block.timestamp;\r\n        item.groupId = group.id;\r\n        item.author = msg.sender;\r\n\r\n        StructuredLinkedList.pushFront(group.drafts, item.id);\r\n\r\n        // Emit event\r\n        emit LogAddItem(item.id, item.groupId, _hash, item.author);\r\n    }\r\n\r\n    function getGroup(uint groupId)\r\n        public\r\n        view\r\n        returns (uint size, \r\n            string memory name,\r\n            address creator,\r\n            uint creationDate,\r\n            uint32 minimalVotes,\r\n            uint8 minimalPercentsToAccept,\r\n            uint memberCounter)\r\n    {\r\n        Group storage group = groupsMap[groupId];\r\n        size = group.drafts.size;\r\n        name = group.name;\r\n        creator = group.creator;\r\n        creationDate = group.creationDate;\r\n        minimalVotes = group.minimalVotes;\r\n        minimalPercentsToAccept = group.minimalPercentsToAccept;\r\n        memberCounter = group.memberCounter;\r\n    }\r\n}",
  "sourcePath": "D:\\Projects\\blockchain-developer-bootcamp-final-project\\contracts\\Censorshield.sol",
  "compiler": {
    "name": "solc",
    "version": "0.8.10+commit.fc410830.Emscripten.clang"
  },
  "schemaVersion": "3.4.3",
  "updatedAt": "2021-11-28T06:27:52.455Z",
  "networkType": "ethereum",
  "devdoc": {
    "kind": "dev",
    "methods": {},
    "stateVariables": {
      "groupsMap": {
        "details": "The reason why this map is internal is solidity limitation to access to Group.drafts property. Access to this data will be provided by custom getter"
      },
      "memberGroupsCounterMap": {
        "details": "Needed to more advanced tracking the groups of member"
      }
    },
    "version": 1
  },
  "userdoc": {
    "kind": "user",
    "methods": {
      "groupCounter()": {
        "notice": "handling the group ids"
      },
      "groupNamesMap(bytes32)": {
        "notice": "Mapping of group names hashes and their ids"
      },
      "itemCounter()": {
        "notice": "Item counter to handle the item ids"
      },
      "itemsMap(uint256)": {
        "notice": "Mapping of item ids to items;"
      },
      "memberGroupsCounterMap(address)": {
        "notice": "Mapping each member to groups quantity"
      },
      "memberGroupsMap(address,uint256)": {
        "notice": "Mapping each member to group ids"
      },
      "owner()": {
        "notice": "Keep the information about contract owner to handle the security"
      }
    },
    "version": 1
  }
}