{
  "contractName": "StringsTest",
  "abi": [
    {
      "inputs": [
        {
          "internalType": "bytes",
          "name": "_value",
          "type": "bytes"
        }
      ],
      "name": "lower",
      "outputs": [
        {
          "internalType": "bytes",
          "name": "",
          "type": "bytes"
        }
      ],
      "stateMutability": "pure",
      "type": "function"
    },
    {
      "inputs": [
        {
          "internalType": "bytes",
          "name": "_value",
          "type": "bytes"
        }
      ],
      "name": "areWords",
      "outputs": [
        {
          "internalType": "bool",
          "name": "",
          "type": "bool"
        }
      ],
      "stateMutability": "pure",
      "type": "function"
    }
  ],
  "bytecode": "0x608060405234801561001057600080fd5b5061077e806100206000396000f3fe608060405234801561001057600080fd5b50600436106100365760003560e01c80635853dc211461003b5780636e85843e1461006b575b600080fd5b610055600480360381019061005091906104a0565b61009b565b6040516100629190610571565b60405180910390f35b610085600480360381019061008091906104a0565b6100ad565b60405161009291906105ae565b60405180910390f35b60606100a6826100bf565b9050919050565b60006100b8826101c3565b9050919050565b606060005b82518110156101ba5760008382815181106100e2576100e16105c9565b5b602001015160f81c60f81b9050604160f81b817effffffffffffffffffffffffffffffffffffffffffffffffffffffffffffff19161015801561014b5750605a60f81b817effffffffffffffffffffffffffffffffffffffffffffffffffffffffffffff191611155b156101a65760208160f81c6101609190610634565b60f81b848381518110610176576101756105c9565b5b60200101907effffffffffffffffffffffffffffffffffffffffffffffffffffffffffffff1916908160001a9053505b5080806101b290610675565b9150506100c4565b50819050919050565b600080600183516101d491906106be565b905060005b835181101561033a5760008482815181106101f7576101f66105c9565b5b602001015160f81c60f81b9050602060f81b817effffffffffffffffffffffffffffffffffffffffffffffffffffffffffffff1916141561025a5760018261023f9190610714565b8314156102525760009350505050610341565b819250610326565b607a60f81b817effffffffffffffffffffffffffffffffffffffffffffffffffffffffffffff191611806102b35750603060f81b817effffffffffffffffffffffffffffffffffffffffffffffffffffffffffffff1916105b806103145750606160f81b817effffffffffffffffffffffffffffffffffffffffffffffffffffffffffffff19161080156103135750603960f81b817effffffffffffffffffffffffffffffffffffffffffffffffffffffffffffff1916115b5b156103255760009350505050610341565b5b50808061033290610675565b9150506101d9565b5060019150505b919050565b6000604051905090565b600080fd5b600080fd5b600080fd5b600080fd5b6000601f19601f8301169050919050565b7f4e487b7100000000000000000000000000000000000000000000000000000000600052604160045260246000fd5b6103ad82610364565b810181811067ffffffffffffffff821117156103cc576103cb610375565b5b80604052505050565b60006103df610346565b90506103eb82826103a4565b919050565b600067ffffffffffffffff82111561040b5761040a610375565b5b61041482610364565b9050602081019050919050565b82818337600083830152505050565b600061044361043e846103f0565b6103d5565b90508281526020810184848401111561045f5761045e61035f565b5b61046a848285610421565b509392505050565b600082601f8301126104875761048661035a565b5b8135610497848260208601610430565b91505092915050565b6000602082840312156104b6576104b5610350565b5b600082013567ffffffffffffffff8111156104d4576104d3610355565b5b6104e084828501610472565b91505092915050565b600081519050919050565b600082825260208201905092915050565b60005b83811015610523578082015181840152602081019050610508565b83811115610532576000848401525b50505050565b6000610543826104e9565b61054d81856104f4565b935061055d818560208601610505565b61056681610364565b840191505092915050565b6000602082019050818103600083015261058b8184610538565b905092915050565b60008115159050919050565b6105a881610593565b82525050565b60006020820190506105c3600083018461059f565b92915050565b7f4e487b7100000000000000000000000000000000000000000000000000000000600052603260045260246000fd5b600060ff82169050919050565b7f4e487b7100000000000000000000000000000000000000000000000000000000600052601160045260246000fd5b600061063f826105f8565b915061064a836105f8565b92508260ff038211156106605761065f610605565b5b828201905092915050565b6000819050919050565b60006106808261066b565b91507fffffffffffffffffffffffffffffffffffffffffffffffffffffffffffffffff8214156106b3576106b2610605565b5b600182019050919050565b60006106c98261066b565b91506106d48361066b565b9250827fffffffffffffffffffffffffffffffffffffffffffffffffffffffffffffffff0382111561070957610708610605565b5b828201905092915050565b600061071f8261066b565b915061072a8361066b565b92508282101561073d5761073c610605565b5b82820390509291505056fea2646970667358221220bd145ab698a6423aea4dd8f6292f07826a25cdb3db099c4c6e424cc9a4da229664736f6c634300080a0033",
  "immutableReferences": {},
  "source": "pragma solidity 0.8.10;\r\n\r\nimport \"../util/Strings.sol\";\r\n\r\ncontract StringsTest {\r\n    function lower(bytes memory _value)\r\n        public\r\n        pure\r\n        returns (bytes memory)\r\n    {\r\n        return Strings.lower(_value);\r\n    }\r\n\r\n    function areWords(bytes memory _value)\r\n        public\r\n        pure\r\n        returns (bool)\r\n    {\r\n        return Strings.areWords(_value);\r\n    }\r\n}",
  "sourcePath": "D:\\Projects\\blockchain-developer-bootcamp-final-project\\contracts\\test\\StringsTest.sol",
  "compiler": {
    "name": "solc",
    "version": "0.8.10+commit.fc410830.Emscripten.clang"
  },
  "schemaVersion": "3.4.3",
  "updatedAt": "2021-11-28T16:39:26.074Z",
  "devdoc": {
    "kind": "dev",
    "methods": {},
    "version": 1
  },
  "userdoc": {
    "kind": "user",
    "methods": {},
    "version": 1
  }
}